:020000040800F2
:1000000000040020E1010008B1030008B10300086A
:10001000B1030008B1030008B1030008B1030008F0
:10002000B1030008B1030008B1030008E1030008B0
:10003000B1030008B1030008B1030008C1040008BF
:10004000B1030008B1030008B1030008B1030008C0
:10005000B1030008B1030008B1030008B1030008B0
:10006000B1030008B1030008B1030008911F0008A4
:10007000D11F00081120000851200008912000081D
:10008000D12000081121000801270008B103000851
:10009000B1030008B1030008B1030008B103000870
:1000A000B1030008B1030008B1030008B103000860
:1000B000B10300089127000851280008B103000887
:1000C000B1030008B1030008B1030008B103000840
:1000D000B1030008B1030008B1030008B103000830
:1000E000B1030008B1030008B1030008B103000820
:1000F000B1030008B1030008B10300085121000852
:10010000B1030008B1030008B1030008B1030008FF
:10011000B1030008B1030008B1030008B1030008EF
:1001200091210008D1210008112200085122000865
:1001300091220008B1030008B1030008B1030008D0
:10014000B1030008B1030008B1030008C131000881
:10015000D12200081123000851230008B103000830
:10016000B1030008B1030008B1030008B10300089F
:10017000B1030008B1030008B1030008B10300088F
:08018000B1030008B1030008FF
:1001900008B501F0F5F800F013FA03F0A9FB03E04D
:1001A0004FF47A7000F07CFE03F092FB0028F7D049
:1001B000014803F0CDFBF3E708080020AFF300800F
:1001C000704700BFAFF30080AFF30080AFF3008053
:1001D000FEE700BFAFF30080AFF30080AFF3008015
:1001E00072B6644C84F30988022383F31488BFF346
:1001F0006F8F03F00DFB60486049884218D2CA1C1B
:10020000051D531B23F00302034610184FF0553110
:1002100083421960C2F380020AD01AB185422B468C
:10022000296005D01D1D5960083383426960F9D1EA
:100230005348A04218D25349041D0A1B22F003055B
:10024000034628184FF0553183421960C5F38002E8
:100250000AD01AB184422346216005D01D1D596081
:10026000083383426960F9D14749484881421BD22B
:10027000C61C0C1D321B464822F00302161D0568E1
:100280000423B3420D60C2F380020DD022B1456851
:100290000823B342256007D01A1D1D5884585D50AD
:1002A0000833B3428C50F7D13A483B49884217D2C1
:1002B000CB1C041D1A1B22F003050346281800213D
:1002C00083421960C5F380020AD01AB184422346E2
:1002D000216005D01D1D5960083383426960F9D142
:1002E000FFF76EFF2D4D2E498D421DD2CC1C2E1DC9
:1002F000A71BB808471C01242A6800EA0408904795
:10030000BC4211D0B8F1000F05D0022433689847E1
:10031000BC42354608D0696888470234A8682E1D5B
:1003200080470835BC42F6D1FFF732FF1D4D1E4A0B
:1003300095421DD2D41C2E1DA71BBB085F1C012497
:10034000296803EA04088847BC4211D0B8F1000FBD
:1003500005D0022430688047BC42354608D06A6820
:1003600090470234AB682E1D98470835BC42F6D141
:10037000FFF72EFF000800200000002000040020EE
:100380000004002003080020000800201C080020B2
:100390004843000820080020481300208801000876
:1003A000880100088801000888010008AFF3008078
:1003B000FEE700BFAFF30080AFF30080AFF3008033
:1003C00072B6FEE7AFF30080AFF30080AFF30080BA
:1003D00000F086F900F05CFC00F09AF900DF00BF45
:1003E000EFF30983203383F30988002383F3118813
:1003F000704700BFAFF30080AFF30080AFF3008021
:1004000008B54FF46D43CEF200034FF44072C0F2D2
:10041000FA520021996007201021DA6000F0A8F854
:100420000A204FF4007100F0A3F80B208021BDE8F2
:10043000084000F09DB800BFAFF30080AFF300802C
:10044000202383F311884FF46D43CEF200035868E4
:1004500010F400631AD0EFF30983A3F1200282F3B2
:10046000098811494FF080708A6943F8040C92F8AA
:10047000230009689268896858B1914294BF0022AC
:10048000012262B1094A43F8082C704783F31188AE
:100490007047914234BF00220122002AF2D1044861
:1004A00043F8080C704700BF540D0020D10300082A
:1004B000DC030008AFF30080AFF30080AFF30080EF
:1004C00008B500F07DF9202383F3118800F040F98E
:1004D00000F0B6F800F054F9002383F3118800F01F
:1004E0008FF9BDE80840FFF7ABBF00BFAFF3008056
:1004F0002DE9F04FC1F80CD0D0F80CD0BDE8F08F4A
:1005000008B500F005F9002383F311882846A047B9
:1005100000F006FD08BD00BFAFF30080AFF3008020
:10052000F0B44FF461438408CEF20003C03400F00D
:10053000030553F82470ED00FF26420906FA05F67C
:1005400027EA060601FA05F500F01F0002F1600730
:10055000012101FA00F02E4343F8246043F82700FC
:1005600043F82200F0BC7047AFF30080AFF3008087
:1005700082084FF46D43CEF20003063200F0030010
:1005800030B4C00053F82250FF2404FA00F425EAE6
:10059000040401FA00F10C4343F8224030BC7047D8
:1005A000024B034A98698261FEE700BF540D0020A8
:1005B000A03A0008AFF30080AFF30080AFF30080F3
:1005C00030B583B0FFF71CFF00F00AFA00F0A0F985
:1005D00000F07EFE00F0C4FE00F062F940F620005C
:1005E0004021C2F2000000F063FB40F6545440F298
:1005F0000043C2F20003C2F200040125C36180F887
:100600002050A06100F054F8002383F3118862B6F3
:1006100043F6A821A269C0F60001916140F670007E
:10062000009340F2A153C0212A46C0F60003C2F253
:10063000000000F0E5FB03B030BD00BFAFF3008069
:10064000F8B500F0FDF8164B986990F8232012B128
:10065000511E80F82310446A124D631C4362E868FF
:100660002C68421CAC42EA6018D0A768013FA76022
:10067000A7B92168E6684D60E760296000F080F85E
:10068000002383F311882069B047202383F3118866
:1006900000F05EF82C68A368002BEAD0F8BD00BF1C
:1006A000540D0020440D0020AFF30080AFF3008014
:1006B000054B186810B905490A6822B10448054B72
:1006C0001860FFF77DBE7047300900203C0D002008
:1006D000C03A0008400D0020AFF30080AFF3008067
:1006E000074B186810B5074C08B9216821B1064AB4
:1006F000064B1A60FFF764FE0120206010BD00BFAA
:10070000300900203C0D0020C83A0008400D0020B0
:10071000084B186810B5084C28B92168002902DD7B
:100720000020206010BD054A054B1A60FFF748FE07
:10073000F6E700BF300900203C0D0020D03A000849
:10074000400D0020AFF30080AFF30080AFF30080D6
:10075000074B1868002810B5064C01DD216821B14F
:10076000054A064B1A60FFF72BFE0120206010BDE2
:10077000300900203C0D0020D83A0008400D002030
:10078000084B1868002810B5074C05DD21680029C2
:1007900002DD0020206010BD044A054B1A60FFF7FF
:1007A0000FFEF6E7300900203C0D0020E03A00087B
:1007B000400D0020AFF30080AFF30080AFF3008066
:1007C00010B5202383F31188094C2168002902DB2E
:1007D000084A106828B10849084B1960FFF7F0FD76
:1007E00021684A1C2260002383F3118810BD00BFDA
:1007F000300900203C0D0020E83A0008400D0020A0
:1008000010B5202383F31188094C2168002902DDEB
:10081000084A106828B10849084B1960FFF7D0FD55
:1008200021684A1E2260002383F3118810BD00BF97
:10083000300900203C0D0020F03A0008400D002057
:10084000064B1868002804DB05490A68002A00DD09
:1008500070470448044B1860FFF7B2BD3009002010
:100860003C0D0020F83A0008400D0020AFF3008056
:10087000064B186820B906490A68002A00DD70474F
:100880000448054B1860FFF79BBD00BF30090020EE
:100890003C0D0020003B0008400D0020AFF300801D
:1008A00040F63413C2F200031A46402142F8081BF6
:1008B0005A607047AFF30080AFF30080AFF3008061
:1008C0000C490D4A10B4CC680C49536889691C6006
:1008D0005960846A9C6003F1100190F8204002F591
:1008E000816081421C732ABF02F10803516053608A
:1008F00010BC7047440D002034090020540D002026
:1009000040F64053C2F200031860FFF759BD00BF24
:1009100040F64453C2F200034FF0FF3200205B6008
:100920001B609A60D8607047AFF30080AFF300801F
:10093000F8B505460C4616461F46FFF781FFCDB1B8
:10094000C6B1BCB10D492F610B68EE609A68944244
:1009500004D91B68A41A9A68A242FAD358682B607B
:100960008B42686005605D60AC6002D099680C1BCA
:100970009C60F8BD0248FFF7C3FFE3E7440D002089
:10098000103B0008AFF30080AFF30080AFF30080AE
:1009900010B50446FFF754FF84B1E36893B12068B3
:1009A0000A4A904203D08168A368CA1882606168CD
:1009B0000860206800234160E36010BD0448FFF731
:1009C0009FFFEAE70348FFF79BFFE8E7440D00209D
:1009D000203B0008303B0008AFF30080AFF30080FD
:1009E00040F65453C2F2000300225B601B609A6021
:1009F0005B611B61704700BFAFF30080AFF3008005
:100A000010B50446FFF71CFF94F820308BB10E2B75
:100A10000FD00022A168094884F82020006883686C
:100A20008B42FBD24168206061600C6044602046CC
:100A300010BD0348FFF764FFEBE700BF540D002033
:100A4000503B0008AFF30080AFF30080AFF30080AD
:100A500010B52023044683F31188FFF779FE94F83C
:100A600020300D2B11D8DFE803F016101007100B03
:100A7000101010101010100BA06A8268511C8160B9
:100A800094E80C001A60206843604FF0FF33A362C3
:100A90002046FFF7B5FFFFF773FE002383F31188AD
:100AA00010BD00BFAFF30080AFF30080AFF3008054
:100AB00070B5114C0646FFF7DBFE2368A5691A687E
:100AC00085F8206014210120546083F8200085F807
:100AD000231028462260A361FFF7F2FEEB69ADF117
:100AE0002402934202D90548FFF70AFFA06929466C
:100AF000BDE87040FFF7FCBC540D0020643B0008CB
:100B000070B50C4686B00646FFF7B2FE631C12D0E5
:100B10000B4D0C4AAB69214601A8FFF709FF30468F
:100B2000FFF7C6FF049B13B101A8FFF731FFA869C7
:100B3000806A06B070BD3046FFF7BAFF004DF6E799
:100B4000540D0020510A0008AFF30080AFF300807D
:100B500070B5144D04460E46FFF78AFEA869A268D8
:100B60008368A6629A4213D9FFF74AFF012106461D
:100B700084F82010AC61FFF7A3FEF069ADF1240208
:100B800090420AD820463146BDE87040FFF7B0BC1D
:100B90002046BDE87040FFF733BF0348FFF7B0FEC3
:100BA000F0E700BF540D0020643B0008AFF3008065
:100BB00038B5104C2368A5691A68012114205460C7
:100BC00083F8201085F8230028462260A361FFF7F0
:100BD00017FF2846FFF774FEEB69ADF1240293423C
:100BE00002D90548FFF78CFEA0692946BDE83840C8
:100BF000FFF77EBC540D0020643B0008AFF300807B
:100C000070B5144E3368B5691A68AC685660012136
:100C1000002083F820103260B36185F8200000E0E6
:100C20001B689A68A242FBD859682B606960284605
:100C30005D600D60FFF744FEEB69ADF12400834277
:100C400002D90548FFF75CFEB0692946BDE870404F
:100C5000FFF74EBC540D0020643B0008AFF300804A
:100C600008B5FFF705FE064B1A6898699168836816
:100C7000994200D808BDBDE80840FFF7C1BF00BFDA
:100C8000540D0020AFF30080AFF30080AFF300807D
:100C9000044B986990F8231009B1FFF7B1BFFFF733
:100CA00087BF00BF540D0020AFF30080AFF300807A
:100CB0002DE9F00140F65454C2F2000400226569A7
:100CC0004164046100F13006816000F12C0C00F1F8
:100CD0004C0745614FF0020860610121142480F83F
:100CE000208080F8212080F823400264C2634262A1
:100CF00080F8221082612861C0F82CC04663066328
:100D0000C761BDE8F0017047AFF30080AFF300802A
:100D1000884214D20346C04303F8012B08188B42C3
:100D200000F001000CD018B103F8012B8B4208D061
:100D3000184600F8012B5A70431C8B42F8D17047BB
:100D400070477047AFF30080AFF30080AFF30080CF
:100D50002DE9F84F04460D4690469946FFF770FD81
:100D60000CB1AF2D38D82048FFF7CAFD1F4E0A9BA3
:100D7000D6F814C0A5F124016718E76044F8019083
:100D80001B497B6002233962002504F1300204F123
:100D90002C0B04F14C0A84F8203014210123266125
:100DA000C4F80880C4F814C02046746184F8215047
:100DB00084F82310C4F844802564E563656284F8F0
:100DC0002230A561CCF81040C4F82CB062632263D5
:100DD000C4F81CA0BDE8F88FB8F17F0FC3D8B9F1F3
:100DE000000FC3D1BFE700BF803B0008540D0020B7
:100DF00001050008AFF30080AFF30080AFF300807F
:100E00002DE9F04F9B4683B080468946924600F11B
:100E10004C0300F1010400F14D07FF26254604F8BC
:100E2000016C05F8016B6C1CBC42F7D108EB09079B
:100E3000BB4215D21846552600F8016BD9437A18E3
:100E4000B84202F001030BD01BB100F8016BB842AD
:100E500006D0054605F8016B4670681CB842F8D10B
:100E6000202383F31188FFF73BFC0C9C5B46524622
:100E7000494600944046FFF76BFF00210446FFF708
:100E800067FEFFF745FC002383F31188204603B07B
:100E9000BDE8F08FAFF30080AFF30080AFF30080C8
:100EA00010B5044610B90948FFF72AFD202383F343
:100EB0001188FFF715FC21460620FFF721FEFFF7FA
:100EC00027FC002383F3118810BD00BFC03B00083E
:100ED00038B5104B9C692546A06255F82C0FA842E6
:100EE00006D00168E162FFF78BFDE06AA842F8D105
:100EF00094F82100830704D1636922691A6121698A
:100F00004B610E20FFF7D4FD0348BDE83840FFF7E2
:100F1000F7BC00BF540D0020D03B0008AFF30080A9
:100F200010B52023044683F31188FFF7D9FB204630
:100F3000BDE81040FFF7CCBFAFF30080AFF30080F7
:100F400010B5044620B1002364602460A36010BD86
:100F50000148FFF7D5FCF6E7203C0008AFF300801E
:100F600038B504460D46FFF76BFCC4B1E26B94F84C
:100F7000203045EA0201082BE1630CD0092B00D098
:100F800038BDA06A01408842FAD12046FFF738FDFB
:100F90000023836238BDA26A1142F6D138BD0248EF
:100FA000FFF7AEFCE2E700BFFC3C0008AFF30080B7
:100FB00070B505460E46FFF743FC5DB12C68A542AF
:100FC00007D0A16860683143FFF7CAFF2468A542D3
:100FD000F7D170BD0148FFF793FCEFE7203D000813
:100FE00010B4024659B1084B9B69986244680D20C1
:100FF00083E814005360236010BCFFF781BD4FF0FD
:10100000FF3010BC704700BF540D0020AFF30080CC
:1010100010B4C361019B40608A18002400608460A2
:1010200041618161C1600261036210BC704700BF11
:1010300038B50446FFF704FC2068E3680021A042AD
:101040006361A361A1600AD06FF0010502682260AC
:101050005460FFF7D5FC85622068A042F6D138BD08
:10106000F8B504460E46202383F31188FFF738FBBA
:10107000E3690BB120469847A5682046314655B92B
:10108000FFF7AEFF071EF7DAFFF742FB2B4683F3AD
:1010900011883846F8BDA0692269013DA56010F8A5
:1010A000017B9042A06124BFE068A061FFF730FBA4
:1010B000002383F311883846F8BD00BFAFF30080EA
:1010C0002DE9F0470446154688461E46C769002AA2
:1010D0003AD0202383F31188FFF702FB08F1010ABD
:1010E0004FF00009A8440FB12046B847A568204634
:1010F00031465DB9FFF774FF0028F7D0FFF708FB12
:101100002B4683F311884846BDE8F087A369013D6B
:10111000A56013F8012B0AF8012C2069A361834212
:1011200024BFE368A361FFF7F3FA002383F3118878
:10113000C24509F10109E6D0202383F31188FFF7A6
:10114000CFFA0AF1010ACEE70148FFF7D9FBC0E761
:10115000603D0008AFF30080AFF30080AFF3008084
:1011600010B4C361019B40608C18006082604161D3
:101170008161C1600461036210BC7047AFF30080FD
:1011800038B50446FFF75CFBE368226920686361B9
:10119000D11AA042A361A1600AD06FF001050368D3
:1011A00023605C60FFF72CFC85622068A042F6D1CA
:1011B00038BD00BFAFF30080AFF30080AFF3008015
:1011C0002DE9F041202304468846164683F3118812
:1011D000FFF786FAA568204631465DB9FFF700FFA4
:1011E000071EF7DAFFF794FA2B4683F31188384687
:1011F000BDE8F0816369013DA56003F8018B2269B8
:101200006361934228BFE368E16928BF636109B164
:1012100020468847FFF77CFA002383F311881F4696
:101220003846BDE8F08100BFAFF30080AFF3008027
:101230002DE9F0470446164688469A46D0F81C9099
:10124000002A39D0202383F31188FFF749FA0027B9
:10125000A56820466B1E0DB3A360656918F8011BD5
:1012600005F8011B22696561954224BFE26862614D
:10127000B9F1000F00D0C847FFF74AFA002383F303
:1012800011880137013E14D0202383F31188FFF722
:1012900027FAA56820466B1E002DDDD12046514659
:1012A000FFF79EFE0028D3D0FFF732FA2B4683F3D8
:1012B00011883846BDE8F0870148FFF721FBC1E7F8
:1012C000743D0008AFF30080AFF30080AFF30080FF
:1012D00040F6745240F670534CF200010648C2F2D8
:1012E0000002C2F20003C2F2010120F0070021F067
:1012F00007011060196070474F130020AFF30080A2
:1013000010B50446FFF79CFA074A084913680968B4
:10131000E01D20F00700C91A88429ABF1818106013
:101320000023184610BD00BF740D0020700D002072
:1013300010B52023044683F31188FFF7D1F9204626
:10134000FFF7DEFF0446FFF7E3F9002383F311887C
:10135000204610BDAFF30080AFF30080AFF30080F4
:1013600040F67853C2F2000341F231310022C0F658
:10137000000103F1100019609A60DA60FFF7E0BD28
:1013800008B501F0A5F800F08BFA44F29000C0F621
:10139000000001F00DFB00F02BF800F041F800F028
:1013A0004FF800F045FA00F0A3FA00F019F9BDE893
:1013B000084002F035BA00BFAFF30080AFF3008001
:1013C0004FF48053CEF2000319465A6880188242C7
:1013D0004B6802D29A4205D970479A42F7D998428F
:1013E000F5D870479842F2D8704700BFAFF300803D
:1013F00001F046B9AFF30080AFF30080AFF3008097
:1014000000230122027043608360C3600361436173
:101410001830FFF795BD00BFAFF30080AFF3008039
:1014200001F006BAAFF30080AFF30080AFF30080A5
:101430000123002103704160704700BFAFF30080BB
:1014400001F046BAAFF30080AFF30080AFF3008045
:101450000123002103704160704700BFAFF300809B
:1014600070B52023054683F311880024FFF738F96F
:10147000AE68AC60FFF74CF9234683F31188304621
:1014800070BD00BFAFF30080AFF30080AFF300800A
:1014900070B5046AD4F8583218680278042A00D06B
:1014A00070BD858905F002018DB2002DF8D1666C02
:1014B000206CE36B321AD61AF2D0FFF729F92B46CB
:1014C00083F31188D4F858123346086804F13402C3
:1014D000012100F0B5FA202383F31188FFF700F90A
:1014E000D4F8580200680121BDE8704000F0D8BA75
:1014F000F8B5046AD4F858321A681078042800D075
:10150000F8BDD589516905F00206B5B24E8A002DA5
:10151000F6D1276AE269A369B81AC71ABE42EFD8A2
:10152000FFF7F6F82B4683F31188D4F85812B7FB6F
:10153000F6F306FB03F3086804F11002012100F042
:101540006FFA202383F31188FFF7CAF8D4F85822E2
:1015500010680121BDE8F84000F082BAAFF30080C6
:101560001030FFF7ADBD00BFAFF30080AFF30080D8
:1015700010304FF0FF33FFF7A3BD00BFAFF3008083
:101580003430FFF755BE00BFAFF30080AFF30080EB
:1015900034304FF0FF33FFF74BBE00BFAFF3008096
:1015A0001030FFF75DBD00BFAFF30080AFF30080E8
:1015B00010304FF0FF31FFF753BD00BFAFF3008095
:1015C0003430FFF7FDBD00BFAFF30080AFF3008004
:1015D00034304FF0FF32FFF7F3BD00BFAFF30080B0
:1015E000704700BFAFF30080AFF30080AFF300801F
:1015F00030B543F6D0530546C0F60003044645F81F
:10160000043B83B065600025A56041F2F1430125EC
:1016100004F15801257300F110004FF48072C0F6F8
:1016200000030094FFF7F4FC41F29143009404F1AD
:10163000340004F5AC714FF48072C0F60003FFF77C
:101640008FFD03B030BD00BFAFF30080AFF300806B
:1016500038B504460D46B8B1202383F31188FFF74F
:101660003FF8237B581E012802D90948FFF748F9A3
:101670002968C4F8585202228C602273FFF748F898
:10168000002383F3118838BD0248FFF739F9E3E7F7
:10169000A03D0008903D0008AFF30080AFF300804C
:1016A00038B58468002504F11000A560FFF7C0FC80
:1016B00004F13400FFF764FDA36843F00100A0606B
:1016C0002946201DBDE83840FFF772BCAFF300800B
:1016D00090F8303003F06001202901D000207047DD
:1016E00090F83120212A03D0222A09D0202AF5D1CE
:1016F00006490722002341628262C36201207047CB
:10170000002343628362C362012070470008002007
:10171000F8B5846805460E46202383F31188FFF749
:1017200017F8A36843F008000021A060201DFFF710
:101730003FFC616C226CE76B8B1ADF1B24D1301DE0
:1017400055F820205169178A4B68781E10EA030764
:1017500005D0FFF715F8002383F31188F8BDFFF7D4
:101760000FF83B4683F311882846314604F13402D2
:1017700000F066F9202383F31188FEF7E9FF28467D
:10178000314600F08DF9E4E7FEF7FAFF002383F31A
:1017900011883B46E8E700BFAFF30080AFF300805D
:1017A0002DE9F041202384680546884683F311889B
:1017B000FEF7CEFFA36843F004000021A060201DC7
:1017C000FFF7F6FB276A6969E269A3694E8AB81ACE
:1017D000C71ABE4217D8FEF7D3FF002383F3118840
:1017E000B7FBF6F306FB03F32846414604F110026B
:1017F00000F016F9202383F31188FEF7A9FF28468D
:10180000414600F02DF9FEF7BBFF002383F311885A
:10181000BDE8F081AFF30080AFF30080AFF300804C
:10182000704700BFAFF30080AFF30080AFF30080DC
:1018300001F05EB8AFF30080AFF30080AFF300803B
:10184000002301220270436083600C30FFF778BBF5
:101850004FF48053CEF2000359688160704700BF97
:101860004FF48053CEF20003094A81685B6810B4DC
:101870001468C2685B1A191B9142816005D802691D
:10188000914238BF016110BC7047C160FBE700BFE7
:10189000980D0020AFF30080AFF30080AFF300801D
:1018A00010B540F6985486B0C2F200044FF480534D
:1018B0000022CEF200034FF0FF3022600492059028
:1018C000596841F6610241F6510301A8C0F60003D0
:1018D000C0F60002019302920391FFF7C1FF039843
:1018E000206006B010BD00BFAFF30080AFF30080F2
:1018F00001F0EEBCAFF30080AFF30080AFF30080E7
:10190000002301220270436083608381C38170479A
:1019100070B504460E46E8B1E1B1202383F3118887
:10192000FEF7DEFE2378581E012802D90B48FEF789
:10193000E7FF00252046666025616561A561E561D8
:1019400001F0EEFC02212170FEF7E2FE2B4683F34C
:10195000118870BD0248FEF7D3FFDEE7303E000875
:10196000203E0008AFF30080AFF30080AFF30080AB
:10197000F8B504460E461546FEF762FF0CB305B3F4
:101980002378042B02D01148FEF7BAFF371D54F814
:10199000270010B10E48FEF7B3FF686918B10021A7
:1019A000102201F0E5FFA86918B10021102201F012
:1019B000DFFF2046314644F82750BDE8F84001F0EB
:1019C000CFBD0448FEF79CFFDAE700BF743E000875
:1019D000903E00085C3E0008AFF30080AFF300804B
:1019E00030B40C1D002550F82440A4692560E26045
:1019F0006360A56030BC01F093BE00BFAFF3008010
:101A000030B40C1D002550F8244064692560E26064
:101A10006360A56030BC01F09BBE00BFAFF30080E7
:101A200030B40C1D50F82450AC69012563600023CC
:101A30002560E260A36030BC01F072BEAFF30080AD
:101A400030B40C1D50F824506C69012563600023EC
:101A50002560E260A36030BC01F07ABEAFF3008085
:101A600070B504460D46FEF7EBFE9CB1E38943FAE0
:101A700005F010F0010601D0012070BD012202FA2C
:101A800005F242EA0301E1812046294601F080FE89
:101A9000304670BD0148FEF733FFE7E7E43E00083B
:101AA00070B504460D46FEF7CBFE9CB1A38943FA00
:101AB00005F010F0010601D0012070BD012202FAEC
:101AC00005F242EA0301A1812046294601F068FEA1
:101AD000304670BD0148FEF713FFE7E7FC3E000803
:101AE00010B40346002202240470028783F83A20CF
:101AF00080F83B208281C281026142618261C261C1
:101B000083F8202010BC01F07BBC00BFAFF3008045
:101B1000F8B50446002380F8203000F1300201F0CF
:101B2000EFFD6068816800292DD02046884750B3BA
:101B3000A56A94F8303094F8371094F8362042EAC9
:101B40000120A8423CBF0546A06213F0800F2B463F
:101B500040F08780002D6DD1042184F820102046AC
:101B600029462A46FFF74CFF202383F31188FEF70E
:101B7000EFFD29462046FFF793FFFEF701FE2B46B7
:101B800083F31188F8BD94F8303013F0600711D05A
:101B90000021204601F024FE2046002101F018FE1D
:101BA00063681A6812B1204605219047052084F821
:101BB0002000F8BD94F8316003F07F0242EA062667
:101BC000B6F5407F00F0038117DDB6F5C06F00F079
:101BD000958075DDB6F5106F00F0BE8040F60242CC
:101BE000964200F08480B6F5006FD1D1012504F152
:101BF0003B006062A562E7629DE7022E00F0BE80B6
:101C000070DDB6F5807F00F09280B6F5817FBFD1A0
:101C100094F832100029BBD194F8345015F00F011C
:101C20005BD02A06204600F1018101F0E1FD94F825
:101C3000303052E0032284F8202020460021626ADE
:101C4000FFF7CEFE202383F31188FEF781FD0021EC
:101C50002046FFF705FFFEF793FD002383F311886D
:101C6000F8BDB5B1012184F8201020460021626A38
:101C7000FFF7C6FE202383F31188FEF769FD0021DC
:101C80002046FFF70DFFFEF77BFD002383F311884D
:101C9000F8BD022084F82000294620462A46FFF796
:101CA0009FFE202383F31188FEF752FD294620462C
:101CB000FFF7D6FEFEF764FD2B4683F31188F8BDCF
:101CC00040F20230864270D0B6F5A06F7FF460AF6C
:101CD000218EB1F5A06F00F0978000256562A562A6
:101CE000E56228E7002E30D0012E7FF451AF544931
:101CF000022500226162A562E2621CE7606894F836
:101D0000356094F83430456894F8331094F83220F4
:101D1000204643EA0623A84700283FF439AF41682C
:101D2000056894F830306162A562E76203E794F8D1
:101D30003220012A7FF42CAF208F676220F002014D
:101D40002187A762E7623D46F5E6022504F13800E7
:101D50006062A562E662EEE694F8325084F83B5089
:101D6000002D42D10321217062681568002DB4D086
:101D700020460221A84794F83030AEE794F834307A
:101D800013F0800F204603F00F0131D101F098FCD1
:101D9000012831D002287FF4FBAE2A4DA062656293
:101DA000E76294F830300546C5E694F83210002911
:101DB0007FF4EEAE94F8345015F00F018DD02B0661
:101DC000204638D401F004FD94F8303085E794F8CB
:101DD0003220012A7FF4DCAE258F676245F00200D5
:101DE0002087A762E7623D46A5E604202070BBE796
:101DF00001F076FC0128CDD1134AA6626262E76247
:101E000094F83030354696E694F83230204684F81F
:101E10003A3001F095FB65682A6812B1204601212D
:101E20009047032094F83030207056E701F0E8FC2A
:101E300094F8303051E701F0D3FC94F830304CE79F
:101E4000003E0008103E0008503F0008AFF300803D
:101E500038B590F82030012B044619D0042B10D04F
:101E6000002101F0BDFC2046002101F0B1FC6068BA
:101E7000026812B1204605219047052184F8201000
:101E800038BDC36A03B19847002084F8200038BDEC
:101E900090F8372090F83610856A41EA0223AB4269
:101EA00006D90269118AB5FBF1F301FB1355BDB1E7
:101EB000002102200B4684F820000A462046FFF746
:101EC0008FFD202383F31188FEF742FC002120467A
:101ED000FFF7C6FDFEF754FC002383F3118838BDDD
:101EE0002B4629462A46FFF78BFD202383F31188D2
:101EF000FEF72EFC29462046FFF7D2FDFEF740FCF8
:101F00002B4683F3118838BDAFF30080AFF3008018
:101F100090F82030022B10B504462AD0032B11D0A4
:101F20000021204601F05CFC2046002101F050FC1D
:101F300063681A6812B1204605219047052184F88C
:101F4000201010BD002104220B4680F820200A46F4
:101F5000FFF756FD202383F31188FEF7F9FB0021DC
:101F60002046FFF79DFDFEF70BFC002383F311884D
:101F700010BD01698B699A68002AD1D1C16A01B18B
:101F80008847002084F8200010BD00BFAFF3008018
:101F900010B5FEF715FC4FF4C043C4F20203084825
:101FA000196802683D2401F03D019C600AB1406857
:101FB0009047FEF725FCBDE81040FEF741BA00BF90
:101FC0009C0D0020AFF30080AFF30080AFF30080E2
:101FD00010B5FEF7F5FB4FF4C043C4F20203094805
:101FE000196882688C0904F03D014FF474649C60A8
:101FF0000AB1C0689047FEF703FCBDE81040FEF749
:102000001FBA00BF9C0D0020AFF30080AFF300802B
:1020100010B5FEF7D5FB4FF4C043C4F202030948E4
:10202000196802690C0C04F03D014FF474149C60B3
:102030000AB140699047FEF7E3FBBDE81040FEF7A8
:10204000FFB900BF9C0D0020AFF30080AFF300800C
:1020500010B5FEF7B5FB4FF4C043C4F202030948C4
:10206000196882698C0D04F03D014FF074649C6026
:102070000AB1C0699047FEF7C3FBBDE81040FEF708
:10208000DFB900BF9C0D0020AFF30080AFF30080EC
:1020900010B5FEF795FB4FF4C043C4F202030848A5
:1020A0005968026A3D2401F03D01DC600AB1406AD2
:1020B0009047FEF7A5FBBDE81040FEF7C1B900BF91
:1020C0009C0D0020AFF30080AFF30080AFF30080E1
:1020D00010B5FEF775FB4FF4C043C4F20203094884
:1020E0005968826A8C0904F03D014FF47464DC6025
:1020F0000AB1C06A9047FEF783FBBDE81040FEF7C7
:102100009FB900BF9C0D0020AFF30080AFF30080AB
:1021100010B5FEF755FB4FF4C043C4F20203094863
:102120005968026B0C0C04F03D014FF47414DC6030
:102130000AB1406B9047FEF763FBBDE81040FEF725
:102140007FB900BF9C0D0020AFF30080AFF300808B
:1021500010B5FEF735FB4FF4C043C4F20203094843
:102160005968826B8C0D04F03D014FF07464DC60A3
:102170000AB1C06B9047FEF743FBBDE81040FEF785
:102180005FB900BF9C0D0020AFF30080AFF300806B
:1021900010B5FEF715FB4FF4C843C4F2020308481C
:1021A0001968026C3D2401F03D019C600AB1406C4D
:1021B0009047FEF725FBBDE81040FEF741B900BF90
:1021C0009C0D0020AFF30080AFF30080AFF30080E0
:1021D00010B5FEF7F5FA4FF4C843C4F202030948FC
:1021E0001968826C8C0904F03D014FF474649C60A2
:1021F0000AB1C06C9047FEF703FBBDE81040FEF744
:102200001FB900BF9C0D0020AFF30080AFF300802A
:1022100010B5FEF7D5FA4FF4C843C4F202030948DB
:102220001968026D0C0C04F03D014FF474149C60AD
:102230000AB1406D9047FEF7E3FABDE81040FEF7A3
:10224000FFB800BF9C0D0020AFF30080AFF300800B
:1022500010B5FEF7B5FA4FF4C843C4F202030948BB
:102260001968826D8C0D04F03D014FF074649C6020
:102270000AB1C06D9047FEF7C3FABDE81040FEF703
:10228000DFB800BF9C0D0020AFF30080AFF30080EB
:1022900010B5FEF795FA4FF4C843C4F2020308489C
:1022A0005968026E3D2401F03D01DC600AB1406EC8
:1022B0009047FEF7A5FABDE81040FEF7C1B800BF91
:1022C0009C0D0020AFF30080AFF30080AFF30080DF
:1022D00010B5FEF775FA4FF4C843C4F2020309487B
:1022E0005968826E8C0904F03D014FF47464DC601F
:1022F0000AB1C06E9047FEF783FABDE81040FEF7C2
:102300009FB800BF9C0D0020AFF30080AFF30080AA
:1023100010B5FEF755FA4FF4C843C4F2020309485A
:102320005968026F0C0C04F03D014FF47414DC602A
:102330000AB1406F9047FEF763FABDE81040FEF720
:102340007FB800BF9C0D0020AFF30080AFF300808A
:1023500010B5FEF735FA4FF4C843C4F2020309483A
:102360005968826F8C0D04F03D014FF07464DC609D
:102370000AB1C06F9047FEF743FABDE81040FEF780
:102380005FB800BF9C0D0020AFF30080AFF300806A
:102390002DE9F00F40F61C658AB0C2F2000546F246
:1023A00040400295783046F21045C4F20205A0F58F
:1023B00080600495C4F2020046F240450390C4F2E6
:1023C000020546F228400695C4F2020046F2704526
:1023D0000590C4F2020546F258400195C4F202008D
:1023E00046F2B8450790C4F2020546F288400995C6
:1023F000C4F20200029D089046F2100B002040F645
:102400009C5346F2280A46F2400946F2580846F222
:10241000700C46F2880746F2A006C2F2000328605C
:10242000C4F2020B039DCBF80000C4F2020AC4F20E
:102430000209C4F20208C4F2020CC4F20207C4F298
:1024400002061860CAF800009860C9F80000186118
:10245000C8F800009861CCF80000186238609862F3
:10246000306018632860049D98632860059D186497
:102470002860069D98642860079D186546F2104400
:1024800028606034019D986530342860C4F20204ED
:10249000089D18664FF4C0414FF4C8422860C4F24A
:1024A00002019866C4F202022060099C18674FF08E
:1024B000FF35206098678D60CD609560D5600AB06B
:1024C000BDE8F00F704700BFAFF30080AFF30080AE
:1024D0004FF46053C4F202030022196941F0010075
:1024E00030B418611A615C6944F001055D615A619C
:1024F000996941F0010098619A611C6A1C621A6234
:102500005D6A4EF21001CEF2000149F23F04C0F2C2
:1025100002044EF6F05045F001055D62CEF2000077
:102520005A624C6007248A600C60C4684FF4805182
:10253000CEF2000144F08074C460086840F00100ED
:102540000860186C4FF4E041C4F2000140F0805084
:102550001864086840F480700860196F01F44070D6
:10256000B0F5007F03D04FF4803119671A674FF43C
:102570006053C4F202031A6F120407D4186F40F4B8
:10258000007119671A6F42F40040186730BCFFF7FA
:10259000FFBE00BFAFF30080AFF30080AFF3008059
:1025A0004FF46052C4F202024FF4E043C4F200035D
:1025B0004FF0805111644FF4804218461A6043680E
:1025C0005904FCD54FF46050C4F202000146026881
:1025D00042F00103036008684FF460538207C4F2BD
:1025E0000203F8D5196841F480321A601946086868
:1025F0004FF460538003C4F20203F8D55A6F42F0DF
:10260000010159671846426F4FF460539207C4F2B4
:102610000203F8D545F20841C0F2407159601868CC
:1026200040F080721A60194608684FF460538001C8
:10263000C4F20203F8D598684FF414424FF4705175
:10264000C3F60802C4F20201104340F2057298601A
:102650000A60996841F002009860996801F00C00E6
:102660004FF460520828C4F20202F6D1536C43F4CE
:1026700080415164506E40F480435366704700BF00
:102680004FF40C5310B5C4F2010340F62064C2F2BB
:102690000004012220465A60FEF7B2FE4FF40052B9
:1026A000C4F20102A26242F61643054AC0F20203D6
:1026B00012206021E2622363BDE81040FDF730BFC5
:1026C000F03F0008AFF30080AFF30080AFF300806D
:1026D000C16A0A68136810B423F001041460136817
:1026E00013F00103FBD10C7A826A49683D2000FA9D
:1026F00004F00860536093600123936010BC70473E
:1027000038B5FEF75DF84FF40053C4F20103002121
:102710001A681960910629D5194CE06A03685A684D
:1027200022B3216911B32046FFF7D2FF2569EB6878
:102730003BB1052020700121204698472278052AC8
:102740001AD000252561202383F31188FEF700F8B5
:10275000606930B14FF0FF33094A83625561FEF77B
:102760004FF9FEF70DF8002383F31188FEF748F8C0
:10277000BDE83840FDF764BE02212170E1E700BFEB
:10278000200E0020AFF30080AFF30080AFF3008095
:1027900038B5264CFEF714F8E3686268188A9D89FC
:1027A000117DADB20540E84380B2188205F0020306
:1027B00098B2C9B938B1207804230328237002D015
:1027C000D2682046904705F0040188B2002826D13F
:1027D000EB0703D56368154819698847FEF710F8B9
:1027E000BDE83840FDF72CBE70B905F0040398B27F
:1027F0000028EDD021780D48042203292270E7D06B
:102800004368D9688847E3E705212046217092682C
:10281000904705F0040398B20028D9D0EAE763682E
:1028200002489968052222708847D1E7540E00209B
:1028300010B540F65464C2F200042046FEF7F8FDDD
:102840004FF48063C4F20003E36010BDAFF3008077
:1028500038B51E4DFDF7B4FF2B691A8A9C89A4B2C6
:102860001440E14304F0020089B282B21982002AC6
:1028700027D104F0040082B2002A1DD104F0080020
:1028800082B2A2B904F0100082B25AB9E30703D5AC
:102890006A680E4893689847FDF7B2FFBDE8384074
:1028A000FDF7CEBD6B680948996A8847EEE76B680B
:1028B0000648196A8847E5E76B68044899698847BC
:1028C000DCE76B68284619698847D2E76C0E002060
:1028D00010B540F66C64C2F200042046FEF7B8FD65
:1028E0004FF40063C4F20003236110BDAFF3008016
:1028F0002DE9F04140F6806340F68466C2F200069E
:10290000C2F20003264F30464FF6FF7240F6B46520
:10291000C2F200051A80FEF793FF4FF440511622D1
:102920004623C0F2016307F1240EC4F20101C0F294
:102930000162284640F6E464C2F20004F362F161E9
:102940003762C6F824E0B2624FF01608FEF778FF4F
:1029500046264FF46051C4F20001A7F13C02C0F2D8
:102960000108C0F201062046303FE9612A626F6229
:10297000C5F82880EE62FEF763FF43F66070C0F68C
:1029800000004FF47053C4F2000300F15401E361FE
:1029900020626162C4F82880E662BDE8F08100BF71
:1029A000C03F0008AFF30080AFF30080AFF30080BA
:1029B0004FF46053C4F202031A6B6FEA52216FEABC
:1029C00041221A63196D6FEA51226FEA422119659B
:1029D00000230168C4F202034FF480621960416869
:1029E000596081689960C168D9600169596141691C
:1029F000196281695962C169C4F202024FF400632D
:102A00001160016A5160416A9160816AD160C16A56
:102A10005161016B1162416B5162C4F20203826B1E
:102A20001A60C16B5960026C9A60416CD960826C0B
:102A30005A61C16C1962016D4FF440625962416D77
:102A4000C4F202024FF480531160816D5160C16D78
:102A50009160016ED160416E5161816E1162C16EF3
:102A60005162C4F20203026F1A60416F5960826FB3
:102A70009A60C16FD960D0F880205A61D0F8841074
:102A80001962D0F888104FF4A0525962D0F88C1017
:102A9000C4F202024FF4C0531160D0F8901051609C
:102AA000D0F894109160D0F89810D160D0F89C10B4
:102AB0005161D0F8A0101162D0F8A4105162D0F882
:102AC000A810C4F202034FF4E0521960D0F8AC1021
:102AD0005960D0F8B0109960D0F8B410D960D0F82F
:102AE000B8105961D0F8BC101962D0F8C010C4F207
:102AF00002025962D0F8C4301360D0F8C810516097
:102B0000D0F8CC309360D0F8D010D160D0F8D43069
:102B10005361D0F8D8101162D0F8DC104FF4005394
:102B20005162D0F8E020C4F202031A60D0F8E41039
:102B30005960D0F8E8209A60D0F8EC10D960D0F84D
:102B4000F0205A61D0F8F4101962D0F8F8005862F9
:102B5000704700BFAFF30080AFF30080AFF3008099
:102B6000016CC36B00222DE9F00110468F684FF015
:102B7000804C4FF0FF3617E0585055015C1902F1B8
:102B800058014901C4F81009C4F8086953F80180D4
:102B9000B8F1000F17DB58505D190132BA42C5F881
:102BA000100BC5F8086B15D802F1480461015D5897
:102BB000002DE1DA550143F801C05C19D4F8081979
:102BC0008907FBD5DAE743F801C0D4F8081BC9062A
:102BD000FBD5E1E74FF00110C3F81C08BDE8F00198
:102BE000704700BFAFF30080AFF30080AFF3008009
:102BF000F8B5C46B04EB41134FF0FF32D3F8086B08
:102C0000C3F8082B330705460F4603D5D4F814380C
:102C10001A0715D4F30703D5D4F81408C00700D455
:102C2000F8BD3B1DE98955F82300012202FA07F29D
:102C300021EA0203EB81C268394628469047F8BD75
:102C40000A1D50F822305A689047E3E7AFF300803E
:102C5000C26B890141F02003136110698106FCD425
:102C60000C20FEF7ADBB00BFAFF30080AFF30080D8
:102C70002DE9F04F40F65451C2F20001D0F83CA0CB
:102C80008A698346954887B09061202383F3118831
:102C9000FDF726FD4FF000089BF80030012B06D011
:102CA000DBF848409CB9DAF81450E8060FD440F637
:102CB0005457C2F20007DAF81860B96946F01002FA
:102CC000CAF818200220CBF85010FDF7F1FEFDF7EE
:102CD0001FFD002383F311881C46DAF8140010F05E
:102CE00010053AD0DBF83C00026A02F4F015B5F5A5
:102CF000802F49D0B5F5402FEFD102F00F07391DD5
:102D0000C2F30A165BF82130F51CAF081A6AE4D04A
:102D100000F580507E1E0368314642F8043B06F001
:102D200001050123002ED8D02DB107680023711EA4
:102D300042F8047BD1D0066813B142F8046B013B22
:102D40000139056813B142F8045B013B0139F2D146
:102D5000DAF8140010F01005C4D10126DBF8483071
:102D6000A6401E42049640F0BB8001340594DBF877
:102D70004010059C8B68E4B29C42AED9202383F3BB
:102D80001188FDF7ADFC87E702F00F070437C2F3A7
:102D90000A165BF8272095692B68002B3AD16968E1
:102DA000AB68EA680331CB1AF11C9B08890828D06C
:102DB00000F5805001F1FF3909F0010ED0F800C094
:102DC00013B142F804CB013B013919D0BEF1000F19
:102DD00007D0D0F8009013B142F8049B013B0139B1
:102DE0000ED0A646046813B142F8044B013B0139EA
:102DF000046813B142F8044B013B0139F2D1744627
:102E0000EA689019E8605BF82770B8698568AE19C0
:102E1000866062E700F58050ED68002E40D03346B2
:102E2000A446032B696907D92C69A14204D3EC6835
:102E3000032B6C616969F7D8026801F8012B2C69D2
:102E40006961A14224BFE9686961012B27D0D5F8E7
:102E50001490110A09F8011B2C69C5F81490A145BA
:102E600024BFEC686C61022B19D0D5F814E0110C6A
:102E70000EF8011B2C69C5F814E0A64524BFEC68C8
:102E80006C61032B0BD06969120E01F8012B2C69C0
:102E90006961A14224BFEC686C61043BC1D1644606
:102EA000202383F31188FDF71BFCA96828688A1981
:102EB000A842AA6009D003682B605D60FDF7A0FD01
:102EC000C0F828802868A842F5D1FDF7C9FEFDF7B3
:102ED0001FFC002383F3118895E700BF30400008F2
:102EE000202383F31188FDF7FBFBDAF80870DBF889
:102EF0004810049827F0010221EA0001CAF80820CE
:102F0000CBF84810FDF704FC2B4683F31188251DF0
:102F100002955BF825607269936857689F4240F29A
:102F20000081DBF83C10358A60010E18FF1AD6F8D4
:102F300018390390BD4228BF3D4698B20134B5EB25
:102F4000800F059444D8260301960C461168002989
:102F500058D1EB1C019FD1689E0804EB07001BD0E1
:102F6000771E51F804EB019E3B4644F806E007F05B
:102F7000010704317BB12FB151F8044C0431013BFE
:102F8000046008D051F8047C076051F8046B0431E8
:102F9000023B0660F6D1D1684819D06002985BF810
:102FA00020607269946851682B199942936040F2CD
:102FB000BA80039DDBF83C40308A6719CD1AD7F8F8
:102FC0001869854228BF0546B1B2B5EB810FBDD95E
:102FD0000024202383F31188FDF782FBDAF8083000
:102FE00043F00100CAF8080034B9DAF83458049FF5
:102FF00047EA0506CAF83468FDF78AFB002383F325
:103000001188B4E6019BE118D468002D35D0206901
:103010002A46AE4697084FD0A569461B48BF0336DF
:10302000B3109F4238BF3B464FEA830CCCEB020201
:10303000DBB12E465F1E56F8049B3B46C1F800905C
:1030400007F0010704367BB12FB156F8047C043633
:10305000013B0F6008D056F8047C0F6056F8047BE3
:103060000436023B0F60F6D16544A842A56121D821
:10307000E668A661002ACDD17546202383F3118826
:10308000FDF72EFBA16820684F19A042A76009D068
:10309000036823605C60FDF7B3FCC0F828802068FB
:1030A000A042F5D1FDF7DCFDFDF732FB002383F3F1
:1030B000118873E7002ADFD0A66916F8013B864223
:1030C000A66124BFE668A661012A28D0A76917F87F
:1030D000015BB842A7619CBFE768A761022A43EA87
:1030E00005231CD0A76917F8016BB842A7619CBFE4
:1030F000E768A761032A43EA064310D0A56915F8DB
:10310000017B8542A56124BFE568A561043A43EAD5
:10311000076304D00B60002A7FF47CAFACE7002289
:10312000F8E7621C0592012453E700BFAFF300806B
:10313000F8B5C46B04EB41134FF0FF32D3F80869C4
:10314000C3F80829F30705460F4603D5D4F810380D
:10315000DA0723D4330606D50121D4F8340801FA5E
:1031600007F7074200D1F8BD202383F31188FDF74C
:10317000EFFAAB6CD4F83428286D3B4322EA0707FA
:10318000AB64C4F8347818B1FDF73AFC0020286528
:10319000FDF7F6FA002383F31188F8BD0A1DB0F895
:1031A0000CE050F82230012202FA01F22EEA02026B
:1031B00082819B689847CDE7AFF30080AFF3008032
:1031C00070B5424EFDF7FCFAF56B6B69AC691C40BB
:1031D000E1046C612DD4A20448BFD5F80838230758
:1031E00004D57068C16809B138488847E0062BD417
:1031F0006103D5F8185807D5EA074FD4AB0753D465
:10320000680757D429075BD4220307D5EB0338D4CA
:10321000A8033CD469032DD42A0305D4FDF7F0FAA2
:10322000BDE87040FDF70CB928480321FFF7E0FC2A
:10323000F4E73046FEF754FC73681B68002BCAD0D5
:10324000304600219847C6E7202383F31188FDF715
:103250007FFAAA69306D22F01003AB6120B1FDF74F
:10326000CFFB1A4900200865FDF78AFA002383F393
:103270001188BDE702211548FFF7BAFC2A03CDD516
:10328000D2E712480021FFF7B3FCA803C2D5012101
:103290000E48FFF7ADFC6903BED5EBE700210B48F4
:1032A000FFF746FFAB07ABD508480121FFF740FF0A
:1032B0006807A7D502210548FFF73AFF2907A3D5DC
:1032C00002480321FFF734FF9EE700BF180F0020DC
:1032D00038B540F61874C2F200042046FEF710FB21
:1032E0000023E36423654FF0A04304F1A405E363E6
:1032F00044F220032946FF2204F15800C0F60003DF
:103300002364FDF705FD284604F59E715522BDE8AE
:103310003840FDF7FDBC00BFAFF30080AFF3008085
:1033200070B50378C56B012B82B0064601D002B0A0
:1033300070BD3048864249D0F16C0024B464002945
:1033400038D04FF4A250F46BC4F200000323E860BD
:10335000C0F2202300224FF450210120C5F800388C
:10336000C5F8002EA96320612369D807FCD40C207E
:10337000FEF726F82269002AFCDA00243046AC6009
:10338000FFF7EEFB7168C5F81048C868C5F8144827
:10339000C5F81C4850B143F20803AB614FF0FF3150
:1033A0006961A86840F00103AB60C0E74FF4405288
:1033B000AA61F3E7009606F158004FF498710222D3
:1033C0000D4BFDF7C5FC3065F064BAE74FF4605172
:1033D000C4F202014A6B42F080044C634B69002244
:1033E00043F0800048614A614320E021FDF798F8EE
:1033F000A2E700BF180F0020712C0008AFF3008077
:103400002DE9F84F80460021C46BFFF721FCD8F866
:1034100040B0DBF808A04FF00061FF22C4F80019AB
:103420000AF00106C4F8001B0123C4F80829C4F8F7
:10343000082BBAF1000F30D056B102235345C4F81F
:103440002019C4F8201BC4F82829C4F8282B24D834
:103450005F1C03F1490C03F1480903F1580003F123
:10346000590E04EB431604EB471540014FEA4C1785
:103470004FEA49194FEA4E1C0233534544F80910EC
:103480002150C6F80829C6F8082BE15144F80C1061
:10349000C5F80829C5F8082BDAD9DBF80030D8F8C8
:1034A0003C204FF0FF314FF001161025C4F81818DA
:1034B000C4F81C68C8F8443063621561106910F0E4
:1034C0001005FBD10C20FDF77BFFD4F80078D8F86D
:1034D0004030D8F84460586827F4FE62C4F80028E9
:1034E000A16941F4402747F010070921A76106F1BF
:1034F0001002C4F8101848F24003C4F814180C491C
:10350000C1F200038242C8F81010C4F8105BC4F87E
:10351000003BC4F81059C4F80039C8F8442002D957
:103520000448FDF7EDF946F48016A662BDE8F88F71
:103530006040000840400008AFF30080AFF3008017
:10354000C36B90F83A10D3F8002822F4FE6040EAEA
:103550000111C3F800187047AFF30080AFF300808B
:103560002DE9F84F0F1D064650F82730C46B1A6836
:1035700002F0030002280D464FF4004865D00328EE
:1035800060D04146C1F20001C1F20408012818BF11
:1035900088466A01A0180021C0F8101BD8680028CE
:1035A00056D0588A05F15801490148EA0000605098
:1035B0004FF0010CD4F81C0805F110010CFA01F1D0
:1035C0000143C4F81C18A21899680020C2F8100919
:1035D000002950D09A8B198A336CD6F84490880809
:1035E000012A88BF5043596800EB09028A4272647D
:1035F00005F1FF3B4FEA004A20D80BF1400004EBF5
:10360000800B4AEA09032946CBF804303046FFF71D
:103610001FFB56F827100A8A05F1480042EA855137
:10362000430141EA0802E2500121D4F81C0801FAE2
:1036300005F50543C4F81C58BDE8F88F1D48FDF793
:103640005FF9DAE7C1F20C08A3E7C1F20808A0E7C6
:1036500005F15801490105F1100E605820F40040B1
:1036600060500121D4F81C0801FA0EF120EA010093
:10367000C4F81C08A7E705F13F0304EB83024FF4ED
:103680008061C0F20021516030462946FFF7E0FA20
:1036900005F148004301E25822F40041E1500123C2
:1036A000D4F81C0803FA05F520EA0505C4F81C58EF
:1036B000BDE8F88F40400008AFF30080AFF3008012
:1036C0005831C36B49015A5812F4004004D012F427
:1036D000001F0CBF02200120704700BFAFF3008025
:1036E0004831C36B49015A5812F4004004D012F417
:1036F000001F0CBF02200120704700BFAFF3008005
:10370000043150F82130186A016843681160536031
:10371000704700BFAFF30080AFF30080AFF30080CD
:103720000B1D10B4C46B50F823008269438A5068A3
:10373000421ED01804EB411143F0C042B0FBF3F33A
:1037400042EAC340C1F8100B10BC7047AFF30080D1
:103750000B1D10B450F8232053695B686BB1128ABB
:10376000C06B5C1EA418B4FBF2F200EB411143EAFB
:10377000C243C1F8103910BC7047C06B00EB411256
:103780004FF40021C2F81019F5E700BFAFF3008035
:103790005831C36B49015A5842F080605850704705
:1037A00001F14802C36B5201985840F00440985010
:1037B0000120D3F8342800FA01F11143C3F834187A
:1037C000704700BFAFF30080AFF30080AFF300801D
:1037D0005831C36B49015A5842F400105850704791
:1037E0004831C36B49015A5842F400105850704791
:1037F0005831C36B49015A5822F400105850704791
:103800004831C36B49015A5822F400105850704790
:10381000FEF7C6BEAFF30080AFF30080AFF30080C9
:10382000704700BFAFF30080AFF30080AFF30080BC
:1038300041F2B803C2F200031B607047AFF300808F
:10384000022906D0032906D00748012918BF002005
:10385000704706487047032A03D8054800EBC200AA
:1038600070470020704700BF404300081042000826
:1038700010430008AFF30080AFF30080AFF3008087
:10388000022938B50C46054616D1202383F311884A
:10389000FCF75EFF28460121084AFEF769F8214639
:1038A000074A2846FEF764F82846FDF7F9FEFCF7BC
:1038B00067FF002383F3118838BD00BF90410008E3
:1038C00020420008AFF30080AFF30080AFF3008028
:1038D00041F2BC03C2F20003D3F8580201680A782F
:1038E000131F584258417047AFF30080AFF3008078
:1038F00038B541F2BC05C2F20005FFF799FF40F66A
:1039000018742846FDF774FEC2F2000444F2303108
:10391000C0F600012846FDF79BFEE36B9A6B22F48C
:10392000002199634FF47A70FDF7BAFA44F25021FE
:103930002046C0F60001FDF7EBFFE06B836B43F41C
:103940000022826338BD00BFAFF30080AFF3008078
:1039500008B541F2BC03C2F2000301461A681846DA
:1039600013680322984708BDAFF30080AFF30080CF
:10397000F0B48407034600F08E80541E002A00F045
:103980008880E507CEB211D41A46671E02F8016B93
:103990001346154692070FD0002C7AD003F8016B1E
:1039A0009A073C461D4607D0013CEDE7034603F865
:1039B000016B9A071D46F7D1032C52D9CEB246EAC5
:1039C00006270F2C47EA07432DD9A4F1100217460A
:1039D0000F2FC2F300162B606B60AB60EB6005F13C
:1039E000100216D93EB1103F136053609360D3604C
:1039F00010320F2F0DD9203F02F1100613605360D3
:103A00009360D360136153619361D36120320F2FB0
:103A1000F1D8A4F1100222F00F0204F00F041032CA
:103A2000032C15441DD9271F3E462A46032E42F873
:103A3000043BC7F380070DD927B1043E032E42F89B
:103A4000043B07D91746083E47F8043B53603A1D2C
:103A5000032EF7D8231F23F00302131D04F00304E1
:103A6000ED18B4B12B46C9B203F8011B2C19ED4374
:103A70006219A34202F001050BD01DB103F8011B2E
:103A8000A34206D01A4602F8011B5970531CA342E8
:103A9000F8D1F0BC7047054614468DE700000000E1
:103AA00069646C65000000006D61696E00000000D3
:103AB000535623310000000053562332000000000B
:103AC00053562333000000005356233400000000F7
:103AD00053562335000000005356233600000000E3
:103AE00053562337000000005356233800000000CF
:103AF0005356233900000000535623313000000094
:103B00005356233131000000000000000000000087
:103B10002263685654536574492228290000000026
:103B2000226368565452657365744922282900003F
:103B30006368565452657365744928292C202331D3
:103B40000000000000000000000000000000000075
:103B5000636853636852656164794928292C20237E
:103B600031000000737461636B206F766572666C60
:103B70006F7700000000000000000000000000005F
:103B80002263685468644372656174654922282918
:103B900000000000226368546864536574507269C1
:103BA0006F726974792228290000000063685468E4
:103BB00064526573756D6528292C2023310000003F
:103BC000226368546864536C65657022282900007C
:103BD0006368546864457869745328292C2023311C
:103BE00000000000226368546864576169742228E9
:103BF0002900000063685468645761697428292C9F
:103C00002023310063685468645761697428292C43
:103C1000202332000000000000000000000000002F
:103C20002263684D7478496E697422282900000067
:103C30002263684D74784C6F636B5322282900000F
:103C400063684D74784C6F636B5328292C202331A3
:103C50000000000063684D74784C6F636B53282933
:103C60002C202332000000002263684D74785472C7
:103C7000794C6F636B5322282900000063684D74F0
:103C800078556E6C6F636B28292C2023310000005F
:103C900063684D7478556E6C6F636B28292C2023F4
:103CA0003200000063684D7478556E6C6F636B531F
:103CB00028292C202331000063684D7478556E6CE0
:103CC0006F636B5328292C20233200000000000072
:103CD00022636845767452656769737465724D61D5
:103CE000736B222829000000226368457674556EA4
:103CF00072656769737465722228290022636845BA
:103D000076745369676E616C4922282900000000AF
:103D10002263684576745369676E616C22282900B6
:103D200022636845767442726F6164636173744D97
:103D300061736B49222829002263684576744469BF
:103D400073706174636822282900000063684576F7
:103D500074446973706174636828292C20233100CE
:103D600022636849515265616454696D656F757469
:103D7000222829002263684F51577269746554697B
:103D80006D656F7574222829000000000000000096
:103D90002273647553746172742228290000000034
:103DA000736475537461727428292C2023310000C8
:103DB00022736453746F7022282900007364755352
:103DC000746F7028292C20233100000000000000AF
:103DD0009115000871150008D1150008B1150008EB
:103DE000C1150008A115000881150008611500081B
:103DF0006114000800000000000000000000000046
:103E000000000000000000000000000000000000B2
:103E100000000000000000000000000000000000A2
:103E200022757362537461727422282900000000A5
:103E3000757362537461727428292C202331000039
:103E40002275736253746F70222829007573625350
:103E5000746F7028292C20233100000022757362B2
:103E6000496E6974456E64706F696E7449222829C1
:103E700000000000757362456E61626C65456E649A
:103E8000706F696E744928292C20233100000000CE
:103E9000757362456E61626C65456E64706F696EC4
:103EA000744928292C2023320000000022757362F7
:103EB00044697361626C65456E64706F696E74739A
:103EC0004922282900000000757362446973616209
:103ED0006C65456E64706F696E74734928292C2077
:103EE00023310000227573625374617274526563EA
:103EF00065697665492228290000000022757362F1
:103F000053746172745472616E736D6974492228BE
:103F100029000000227573625374616C6C526563F2
:103F200065697665492228290000000022757362C0
:103F30005374616C6C5472616E736D69744922289C
:103F40002900000000000000000000000000000048
:103F50000100000000000000000000000000000060
:103F6000106002400860024000000B002860024020
:103F70000860024006010C004060024008600240F8
:103F800010020D00586002400860024016030E0047
:103F9000706002400C60024000040F008860024024
:103FA0000C60024006051000A06002400C60024058
:103FB00010061100B86002400C60024016072F0086
:103FC000106402400864024000083800286402407F
:103FD0000864024006093900406402400864024057
:103FE000100A3A005864024008640240160B3B0075
:103FF000706402400C640240000C3C008864024083
:104000000C640240060D4400A06402400C640240AF
:10401000100E4500B86402400C640240160F4600C2
:10402000800000008001000003000000000000008C
:104030007573625F6C6C645F70756D70000000007A
:104040006F74675F6669666F5F616C6C6F63282968
:104050002C202331000000000000000000000000C0
:1040600000000000111B0008511E0008111F00086D
:1040700040004000A0100020A0100020010000001F
:10408000B010002000000000000000000000000050
:1040900000AAA02A00000000FFABFFFF540001406F
:1040A000FFFF00000000565500AA0A00802008000B
:1040B00040020000FFFFFFFF15455155FFFF0000C4
:1040C0000000000440000000018020020000000009
:1040D000FFFFFFFF54154554FFFF00000000006084
:1040E000000606000001005500000000FFFFFFFF72
:1040F00055501500FF0F00000000000000000000F8
:104100004000000000000000FFFFFFFF0000000073
:10411000FFFF0000000000000000000000000000A1
:1041200000000000FFFFFFFF00000000FFFF000095
:10413000000000000000000000000000000000007F
:10414000FFFFFFFF00000000FFFF00000000000075
:10415000000000000000000000000000FFFFFFFF63
:1041600000000000FFFF0000000000000000000051
:104170000000000000000000FFFFFFFF0000000043
:10418000FFFF000000000000000000000000000031
:10419000020000000000000011170008A11700082D
:1041A00040004000181300203813002002000000D7
:1041B00000000000000000000000000000000000FF
:1041C00009024300020100C032090400000102029A
:1041D000010005240010010524010001042402024D
:1041E0000524060001070582030800FF09040100F9
:1041F000020A0000000705010240000007058102D5
:10420000400000000000000000000000000000006E
:1042100043000000C0410008000000000000000052
:10422000030000000000000021180008000000004A
:104230001000000028130020000000000100000012
:10424000000000000000000000000000000000006E
:104250008138000841380008D1160008000000002D
:1042600012011001020000408304405700020102C5
:10427000030100000000000000000000000000003A
:10428000040309040000000000000000000000001A
:104290002603530054004D006900630072006F0054
:1042A00065006C0065006300740072006F006E00B2
:1042B00069006300730000000000000000000000BF
:1042C0003803430068006900620069004F00530032
:1042D0002F00520054002000560069007200740044
:1042E000750061006C00200043004F004D0020006D
:1042F00050006F0072007400000000000000000019
:10430000080332003500300000000000000000000B
:1043100004000000804200082600000090420008CF
:1043200038000000C04200080800000000430008F8
:10433000180F002000000000000000000000000036
:084340001200000060420008B9
:10434800009600000000080030313233343536372B
:0C43580038396162636465660000000093
:04000005080001905E
:00000001FF
