:020000040800F2
:1000000000040020F1010008C1030008C10300083A
:10001000C1030008C1030008C1030008C1030008B0
:10002000C1030008C1030008C1030008F103000870
:10003000C1030008C1030008C1030008D10400087F
:10004000C1030008C1030008C1030008C103000880
:10005000C1030008C1030008C1030008C103000870
:10006000C1030008C1030008C103000831180008DB
:1000700071180008B1180008F118000831190008BB
:1000800071190008B1190008A11F0008C103000878
:10009000C1030008C1030008C1030008C103000830
:1000A000C1030008C1030008C1030008C103000820
:1000B000C103000831200008F1200008C103000836
:1000C000C1030008C1030008C1030008C103000800
:1000D000C1030008C1030008C1030008C1030008F0
:1000E000C1030008C1030008C1030008C1030008E0
:1000F000C1030008C1030008C1030008F11900088A
:10010000C1030008C1030008C1030008C1030008BF
:10011000C1030008C1030008C1030008C1030008AF
:10012000311A0008711A0008B11A0008F11A000803
:10013000311B0008C1030008C1030008C103000807
:10014000C1030008C1030008C1030008612A0008B8
:10015000711B0008B11B0008F11B0008C103000857
:10016000C1030008C1030008C1030008C10300085F
:10017000C1030008C1030008C1030008C10300084F
:08018000C1030008C1030008DF
:1001900008B500F045FF00F01BFA02F0E9FF0B493B
:1001A00000235A1CCB540233202B8A54F9D1074820
:1001B00002F0FEFF4FF47A7000F07AFE034802F07E
:1001C000F7FF4FF47A7000F073FEF0E7A010002004
:1001D000704700BFAFF30080AFF30080AFF3008043
:1001E000FEE700BFAFF30080AFF30080AFF3008005
:1001F00072B6644C84F30988022383F31488BFF336
:100200006F8F02F055FF60486049884218D2CA1CBF
:10021000051D531B23F00302034610184FF0553100
:1002200083421960C2F380020AD01AB185422B467C
:10023000296005D01D1D5960083383426960F9D1DA
:100240005348A04218D25349041D0A1B22F003054B
:10025000034628184FF0553183421960C5F38002D8
:100260000AD01AB184422346216005D01D1D596071
:10027000083383426960F9D14749484881421BD21B
:10028000C61C0C1D321B464822F00302161D0568D1
:100290000423B3420D60C2F380020DD022B1456841
:1002A0000823B342256007D01A1D1D5884585D509D
:1002B0000833B3428C50F7D13A483B49884217D2B1
:1002C000CB1C041D1A1B22F003050346281800212D
:1002D00083421960C5F380020AD01AB184422346D2
:1002E000216005D01D1D5960083383426960F9D132
:1002F000FFF76EFF2D4D2E498D421DD2CC1C2E1DB9
:10030000A71BB808471C01242A6800EA0408904784
:10031000BC4211D0B8F1000F05D0022433689847D1
:10032000BC42354608D0696888470234A8682E1D4B
:1003300080470835BC42F6D1FFF72AFF1D4D1E4A03
:1003400095421DD2D41C2E1DA71BBB085F1C012487
:10035000296803EA04088847BC4211D0B8F1000FAD
:1003600005D0022430688047BC42354608D06A6810
:1003700090470234AB682E1D98470835BC42F6D131
:10038000FFF72EFF000800200000002000040020DE
:1003900000040020030800200008002004080020BA
:1003A000983A000808080020E4100020880100089E
:1003B000880100088801000888010008AFF3008068
:1003C000FEE700BFAFF30080AFF30080AFF3008023
:1003D00072B6FEE7AFF30080AFF30080AFF30080AA
:1003E00000F086F900F05CFC00F09AF900DF00BF35
:1003F000EFF30983203383F30988002383F3118803
:10040000704700BFAFF30080AFF30080AFF3008010
:1004100008B54FF46D43CEF200034FF44072C0F2C2
:10042000FA520021996007201021DA6000F0A8F844
:100430000A204FF4007100F0A3F80B208021BDE8E2
:10044000084000F09DB800BFAFF30080AFF300801C
:10045000202383F311884FF46D43CEF200035868D4
:1004600010F400631AD0EFF30983A3F1200282F3A2
:10047000098811494FF080708A6943F8040C92F89A
:10048000230009689268896858B1914294BF00229C
:10049000012262B1094A43F8082C704783F311889E
:1004A0007047914234BF00220122002AF2D1044851
:1004B00043F8080C704700BF3C0D0020E103000822
:1004C000EC030008AFF30080AFF30080AFF30080CF
:1004D00008B500F07DF9202383F3118800F040F97E
:1004E00000F0B6F800F054F9002383F3118800F00F
:1004F0008FF9BDE80840FFF7ABBF00BFAFF3008046
:100500002DE9F04FC1F80CD0D0F80CD0BDE8F08F39
:1005100008B500F005F9002383F311882846A047A9
:1005200000F006FD08BD00BFAFF30080AFF3008010
:10053000F0B44FF461438408CEF20003C03400F0FD
:10054000030553F82470ED00FF26420906FA05F66C
:1005500027EA060601FA05F500F01F0002F1600720
:10056000012101FA00F02E4343F8246043F82700EC
:1005700043F82200F0BC7047AFF30080AFF3008077
:1005800082084FF46D43CEF20003063200F0030000
:1005900030B4C00053F82250FF2404FA00F425EAD6
:1005A000040401FA00F10C4343F8224030BC7047C8
:1005B000024B034A98698261FEE700BF3C0D0020B0
:1005C00030330008AFF30080AFF30080AFF300805A
:1005D00030B583B0FFF71CFF00F00AFA00F0A0F975
:1005E00000F0C6FC00F00CFD00F062F940F60800D7
:1005F0004021C2F2000000F063FB40F63C5440F2A0
:100600000043C2F20003C2F200040125C36180F876
:100610002050A06100F054F8002383F3118862B6E3
:1006200043F23831A269C0F60001916140F65800EA
:10063000009340F2B153C0212A46C0F60003C2F233
:10064000000000F0E5FB03B030BD00BFAFF3008059
:10065000F8B500F0FDF8164B986990F8232012B118
:10066000511E80F82310446A124D631C4362E868EF
:100670002C68421CAC42EA6018D0A768013FA76012
:10068000A7B92168E6684D60E760296000F080F84E
:10069000002383F311882069B047202383F3118856
:1006A00000F05EF82C68A368002BEAD0F8BD00BF0C
:1006B0003C0D00202C0D0020AFF30080AFF3008034
:1006C000054B186810B905490A6822B10448054B62
:1006D0001860FFF77DBE704718090020240D002028
:1006E00050330008280D0020AFF30080AFF30080E6
:1006F000074B186810B5074C08B9216821B1064AA4
:10070000064B1A60FFF764FE0120206010BD00BF99
:1007100018090020240D002058330008280D00205F
:10072000084B186810B5084C28B92168002902DD6B
:100730000020206010BD054A054B1A60FFF748FEF7
:10074000F6E700BF18090020240D002060330008E0
:10075000280D0020AFF30080AFF30080AFF30080DE
:10076000074B1868002810B5064C01DD216821B13F
:10077000054A064B1A60FFF72BFE0120206010BDD2
:1007800018090020240D002068330008280D0020DF
:10079000084B1868002810B5074C05DD21680029B2
:1007A00002DD0020206010BD044A054B1A60FFF7EF
:1007B0000FFEF6E718090020240D00207033000812
:1007C000280D0020AFF30080AFF30080AFF300806E
:1007D00010B5202383F31188094C2168002902DB1E
:1007E000084A106828B10849084B1960FFF7F0FD66
:1007F00021684A1C2260002383F3118810BD00BFCA
:1008000018090020240D002078330008280D00204E
:1008100010B5202383F31188094C2168002902DDDB
:10082000084A106828B10849084B1960FFF7D0FD45
:1008300021684A1E2260002383F3118810BD00BF87
:1008400018090020240D002080330008280D002006
:10085000064B1868002804DB05490A68002A00DDF9
:1008600070470448044B1860FFF7B2BD1809002018
:10087000240D002088330008280D0020AFF30080ED
:10088000064B186820B906490A68002A00DD70473F
:100890000448054B1860FFF79BBD00BF18090020F6
:1008A000240D002090330008280D0020AFF30080B5
:1008B00040F61C13C2F200031A46402142F8081BFE
:1008C0005A607047AFF30080AFF30080AFF3008051
:1008D0000C490D4A10B4CC680C49536889691C60F6
:1008E0005960846A9C6003F1100190F8204002F581
:1008F000816081421C732ABF02F10803516053607A
:1009000010BC70472C0D00201C0900203C0D00205D
:1009100040F62853C2F200031860FFF759BD00BF2C
:1009200040F62C53C2F200034FF0FF3200205B6010
:100930001B609A60D8607047AFF30080AFF300800F
:10094000F8B505460C4616461F46FFF781FFCDB1A8
:10095000C6B1BCB10D492F610B68EE609A68944234
:1009600004D91B68A41A9A68A242FAD358682B606B
:100970008B42686005605D60AC6002D099680C1BBA
:100980009C60F8BD0248FFF7C3FFE3E72C0D002091
:10099000A0330008AFF30080AFF30080AFF3008016
:1009A00010B50446FFF754FF84B1E36893B12068A3
:1009B0000A4A904203D08168A368CA1882606168BD
:1009C0000860206800234160E36010BD0448FFF721
:1009D0009FFFEAE70348FFF79BFFE8E72C0D0020A5
:1009E000B0330008C0330008AFF30080AFF30080DD
:1009F00040F63C53C2F2000300225B601B609A6029
:100A00005B611B61704700BFAFF30080AFF30080F4
:100A100010B50446FFF71CFF94F820308BB10E2B65
:100A20000FD00022A168094884F82020006883685C
:100A30008B42FBD24168206061600C6044602046BC
:100A400010BD0348FFF764FFEBE700BF3C0D00203B
:100A5000E0330008AFF30080AFF30080AFF3008015
:100A600010B52023044683F31188FFF779FE94F82C
:100A700020300D2B11D8DFE803F016101007100BF3
:100A8000101010101010100BA06A8268511C8160A9
:100A900094E80C001A60206843604FF0FF33A362B3
:100AA0002046FFF7B5FFFFF773FE002383F311889D
:100AB00010BD00BFAFF30080AFF30080AFF3008044
:100AC00070B5114C0646FFF7DBFE2368A5691A686E
:100AD00085F8206014210120546083F8200085F8F7
:100AE000231028462260A361FFF7F2FEEB69ADF107
:100AF0002402934202D90548FFF70AFFA06929465C
:100B0000BDE87040FFF7FCBC3C0D0020F43300084A
:100B100070B50C4686B00646FFF7B2FE631C12D0D5
:100B20000B4D0C4AAB69214601A8FFF709FF30467F
:100B3000FFF7C6FF049B13B101A8FFF731FFA869B7
:100B4000806A06B070BD3046FFF7BAFF004DF6E789
:100B50003C0D0020610A0008AFF30080AFF3008075
:100B600070B5144D04460E46FFF78AFEA869A268C8
:100B70008368A6629A4213D9FFF74AFF012106460D
:100B800084F82010AC61FFF7A3FEF069ADF12402F8
:100B900090420AD820463146BDE87040FFF7B0BC0D
:100BA0002046BDE87040FFF733BF0348FFF7B0FEB3
:100BB000F0E700BF3C0D0020F4330008AFF30080E5
:100BC00038B5104C2368A5691A68012114205460B7
:100BD00083F8201085F8230028462260A361FFF7E0
:100BE00017FF2846FFF774FEEB69ADF1240293422C
:100BF00002D90548FFF78CFEA0692946BDE83840B8
:100C0000FFF77EBC3C0D0020F4330008AFF30080FA
:100C100070B5144E3368B5691A68AC685660012126
:100C2000002083F820103260B36185F8200000E0D6
:100C30001B689A68A242FBD859682B6069602846F5
:100C40005D600D60FFF744FEEB69ADF12400834267
:100C500002D90548FFF75CFEB0692946BDE870403F
:100C6000FFF74EBC3C0D0020F4330008AFF30080CA
:100C700008B5FFF705FE064B1A6898699168836806
:100C8000994200D808BDBDE80840FFF7C1BF00BFCA
:100C90003C0D0020AFF30080AFF30080AFF3008085
:100CA000044B986990F8231009B1FFF7B1BFFFF723
:100CB00087BF00BF3C0D0020AFF30080AFF3008082
:100CC0002DE9F00140F63C54C2F2000400226569AF
:100CD0004164046100F13006816000F12C0C00F1E8
:100CE0004C0745614FF0020860610121142480F82F
:100CF000208080F8212080F823400264C263426291
:100D000080F8221082612861C0F82CC04663066317
:100D1000C761BDE8F0017047AFF30080AFF300801A
:100D2000884214D20346C04303F8012B08188B42B3
:100D300000F001000CD018B103F8012B8B4208D051
:100D4000184600F8012B5A70431C8B42F8D17047AB
:100D500070477047AFF30080AFF30080AFF30080BF
:100D60002DE9F84F04460D4690469946FFF770FD71
:100D70000CB1AF2D38D82048FFF7CAFD1F4E0A9B93
:100D8000D6F814C0A5F124016718E76044F8019073
:100D90001B497B6002233962002504F1300204F113
:100DA0002C0B04F14C0A84F8203014210123266115
:100DB000C4F80880C4F814C02046746184F8215037
:100DC00084F82310C4F844802564E563656284F8E0
:100DD0002230A561CCF81040C4F82CB062632263C5
:100DE000C4F81CA0BDE8F88FB8F17F0FC3D8B9F1E3
:100DF000000FC3D1BFE700BF103400083C0D002036
:100E000011050008AFF30080AFF30080AFF300805E
:100E10002DE9F04F9B4683B080468946924600F10B
:100E20004C0300F1010400F14D07FF26254604F8AC
:100E3000016C05F8016B6C1CBC42F7D108EB09078B
:100E4000BB4215D21846552600F8016BD9437A18D3
:100E5000B84202F001030BD01BB100F8016BB8429D
:100E600006D0054605F8016B4670681CB842F8D1FB
:100E7000202383F31188FFF73BFC0C9C5B46524612
:100E8000494600944046FFF76BFF00210446FFF7F8
:100E900067FEFFF745FC002383F31188204603B06B
:100EA000BDE8F08FAFF30080AFF30080AFF30080B8
:100EB00010B5044610B90948FFF72AFD202383F333
:100EC0001188FFF715FC21460620FFF721FEFFF7EA
:100ED00027FC002383F3118810BD00BF50340008A5
:100EE00038B5104B9C692546A06255F82C0FA842D6
:100EF00006D00168E162FFF78BFDE06AA842F8D1F5
:100F000094F82100830704D1636922691A61216979
:100F10004B610E20FFF7D4FD0348BDE83840FFF7D2
:100F2000F7BC00BF3C0D002060340008AFF3008028
:100F300010B52023044683F31188FFF7D9FB204620
:100F4000BDE81040FFF7CCBFAFF30080AFF30080E7
:100F500010B5044620B1002364602460A36010BD76
:100F60000148FFF7D5FCF6E7B0340008AFF3008086
:100F700040F65C5240F658534CF200010648C2F26B
:100F80000002C2F20003C2F2010120F0070021F0CA
:100F90000701106019607047EB100020AFF300806C
:100FA00010B50446FFF754FC074A0849136809685E
:100FB000E01D20F00700C91A88429ABF1818106077
:100FC0000023184610BD00BF5C0D0020580D002006
:100FD00010B52023044683F31188FFF789FB2046D0
:100FE000FFF7DEFF0446FFF79BFB002383F3118826
:100FF000204610BDAFF30080AFF30080AFF3008058
:1010000040F66053C2F2000340F6D1710022C0F6F0
:10101000000103F1100019609A60DA60FFF798BFD1
:1010200008B500F0A5FE00F0ABF843F2F070C0F692
:10103000000001F00DF900F02BF800F041F800F08D
:101040004FF800F065F800F0C3F800F059F8BDE87B
:10105000084002F035B800BFAFF30080AFF3008066
:101060004FF48053CEF2000319465A68801882422A
:101070004B6802D29A4205D970479A42F7D99842F2
:10108000F5D870479842F2D8704700BFAFF30080A0
:1010900000F046BFAFF30080AFF30080AFF30080F5
:1010A00000230122027043608360C36003614361D7
:1010B0001830FFF74DBF00BFAFF30080AFF30080E3
:1010C00001F006B8AFF30080AFF30080AFF300800B
:1010D0000123002103704160704700BFAFF300801F
:1010E00001F046B8AFF30080AFF30080AFF30080AB
:1010F0000123002103704160704700BFAFF30080FF
:10110000704700BFAFF30080AFF30080AFF3008003
:1011100001F03EB8AFF30080AFF30080AFF3008082
:10112000002301220270436083600C30FFF710BF80
:101130004FF48053CEF2000359688160704700BFBE
:101140004FF48053CEF20003094A81685B6810B403
:101150001468C2685B1A191B9142816005D8026944
:10116000914238BF016110BC7047C160FBE700BF0E
:10117000800D0020AFF30080AFF30080AFF300805C
:1011800010B540F6805486B0C2F200044FF480538C
:101190000022CEF200034FF0FF302260049205904F
:1011A000596841F2411241F2311301A8C0F600031F
:1011B000C0F60002019302920391FFF7C1FF03986A
:1011C000206006B010BD00BFAFF30080AFF3008019
:1011D00001F0CEBCAFF30080AFF30080AFF300802E
:1011E000002301220270436083608381C3817047C2
:1011F00070B504460E46E8B1E1B1202383F31188AF
:10120000FFF776FA2378581E012802D90B48FFF71A
:101210007FFB00252046666025616561A561E5616B
:1012200001F0CEFC02212170FFF77AFA2B4683F3FE
:10123000118870BD0248FFF76BFBDEE790350008B0
:1012400080350008AFF30080AFF30080AFF300807B
:10125000F8B504460E461546FFF7FAFA0CB305B387
:101260002378042B02D01148FFF752FB371D54F8A6
:10127000270010B10E48FFF74BFB686918B1002139
:10128000102201F0BDFFA86918B10021102201F061
:10129000B7FF2046314644F82750BDE8F84001F03A
:1012A000AFBD0448FFF734FBDAE700BFD4350008D0
:1012B000F0350008BC350008AFF30080AFF30080C4
:1012C00030B40C1D002550F82440A4692560E2606C
:1012D0006360A56030BC01F073BE00BFAFF3008057
:1012E00030B40C1D002550F8244064692560E2608C
:1012F0006360A56030BC01F07BBE00BFAFF300802F
:1013000070B504460D46FFF7A3FA9CB1E38943FA92
:1013100005F010F0010601D0012070BD012202FA93
:1013200005F242EA0301E1812046294601F080FEF0
:10133000304670BD0148FFF7EBFAE7E74436000896
:1013400070B504460D46FFF783FA9CB1A38943FAB2
:1013500005F010F0010601D0012070BD012202FA53
:1013600005F242EA0301A1812046294601F068FE08
:10137000304670BD0148FFF7CBFAE7E75C3600085E
:1013800010B40346002202240470028783F83A2036
:1013900080F83B208281C281026142618261C26128
:1013A00083F8202010BC01F07BBC00BFAFF30080AD
:1013B000F8B50446002380F8203000F1300201F037
:1013C000EFFD6068816800292DD02046884750B322
:1013D000A56A94F8303094F8371094F8362042EA31
:1013E0000120A8423CBF0546A06213F0800F2B46A7
:1013F00040F08780002D6DD1042184F82010204614
:1014000029462A46FFF76CFF202383F31188FFF754
:10141000A7F929462046FFF793FFFFF7B9F92B46B6
:1014200083F31188F8BD94F8303013F0600711D0C1
:101430000021204601F024FE2046002101F018FE84
:1014400063681A6812B1204605219047052084F888
:101450002000F8BD94F8316003F07F0242EA0626CE
:10146000B6F5407F00F0038117DDB6F5C06F00F0E0
:10147000958075DDB6F5106F00F0BE8040F6024233
:10148000964200F08480B6F5006FD1D1012504F1B9
:101490003B006062A562E7629DE7022E00F0BE801D
:1014A00070DDB6F5807F00F09280B6F5817FBFD108
:1014B00094F832100029BBD194F8345015F00F0184
:1014C0005BD02A06204600F1018101F0E1FD94F88D
:1014D000303052E0032284F8202020460021626A46
:1014E000FFF7EEFE202383F31188FFF739F900217F
:1014F0002046FFF705FFFFF74BF9002383F3118820
:10150000F8BDB5B1012184F8201020460021626A9F
:10151000FFF7E6FE202383F31188FFF721F900216E
:101520002046FFF70DFFFFF733F9002383F31188FF
:10153000F8BD022084F82000294620462A46FFF7FD
:10154000BFFE202383F31188FFF70AF929462046BE
:10155000FFF7D6FEFFF71CF92B4683F31188F8BD81
:1015600040F20230864270D0B6F5A06F7FF460AFD3
:10157000218EB1F5A06F00F0978000256562A5620D
:10158000E56228E7002E30D0012E7FF451AF544998
:10159000022500226162A562E2621CE7606894F89D
:1015A000356094F83430456894F8331094F832205C
:1015B000204643EA0623A84700283FF439AF416894
:1015C000056894F830306162A562E76203E794F839
:1015D0003220012A7FF42CAF208F676220F00201B5
:1015E0002187A762E7623D46F5E6022504F138004F
:1015F0006062A562E662EEE694F8325084F83B50F1
:10160000002D42D10321217062681568002DB4D0ED
:1016100020460221A84794F83030AEE794F83430E1
:1016200013F0800F204603F00F0131D101F098FC38
:10163000012831D002287FF4FBAE2A4DA0626562FA
:10164000E76294F830300546C5E694F83210002978
:101650007FF4EEAE94F8345015F00F018DD02B06C8
:10166000204638D401F004FD94F8303085E794F832
:101670003220012A7FF4DCAE258F676245F002003C
:101680002087A762E7623D46A5E604202070BBE7FD
:1016900001F076FC0128CDD1134AA6626262E762AE
:1016A00094F83030354696E694F83230204684F887
:1016B0003A3001F095FB65682A6812B12046012195
:1016C0009047032094F83030207056E701F0E8FC92
:1016D00094F8303051E701F0D3FC94F830304CE707
:1016E0006035000870350008B0360008AFF30080A0
:1016F00038B590F82030012B044619D0042B10D0B7
:10170000002101F0BDFC2046002101F0B1FC606821
:10171000026812B1204605219047052184F8201067
:1017200038BDC36A03B19847002084F8200038BD53
:1017300090F8372090F83610856A41EA0223AB42D0
:1017400006D90269118AB5FBF1F301FB1355BDB14E
:10175000002102200B4684F820000A462046FFF7AD
:10176000AFFD202383F31188FEF7FAFF0021204606
:10177000FFF7C6FDFFF70CF8002383F3118838BD8F
:101780002B4629462A46FFF7ABFD202383F3118819
:10179000FEF7E6FF29462046FFF7D2FDFEF7F8FFE9
:1017A0002B4683F3118838BDAFF30080AFF3008080
:1017B00090F82030022B10B504462AD0032B11D00C
:1017C0000021204601F05CFC2046002101F050FC85
:1017D00063681A6812B1204605219047052184F8F4
:1017E000201010BD002104220B4680F820200A465C
:1017F000FFF776FD202383F31188FEF7B1FF002168
:101800002046FFF79DFDFEF7C3FF002383F31188F9
:1018100010BD01698B699A68002AD1D1C16A01B1F2
:101820008847002084F8200010BD00BFAFF300807F
:1018300010B5FEF7CDFF4FF4C043C4F202030848D1
:10184000196802683D2401F03D019C600AB14068BE
:101850009047FEF7DDFFBDE81040FEF7F9BD00BF81
:10186000840D0020AFF30080AFF30080AFF3008061
:1018700010B5FEF7ADFF4FF4C043C4F202030948B0
:10188000196882688C0904F03D014FF474649C600F
:101890000AB1C0689047FEF7BBFFBDE81040FEF7F5
:1018A000D7BD00BF840D0020AFF30080AFF30080F0
:1018B00010B5FEF78DFF4FF4C043C4F20203094890
:1018C000196802690C0C04F03D014FF474149C601B
:1018D0000AB140699047FEF79BFFBDE81040FEF754
:1018E000B7BD00BF840D0020AFF30080AFF30080D0
:1018F00010B5FEF76DFF4FF4C043C4F20203094870
:10190000196882698C0D04F03D014FF074649C608D
:101910000AB1C0699047FEF77BFFBDE81040FEF7B3
:1019200097BD00BF840D0020AFF30080AFF30080AF
:1019300010B5FEF74DFF4FF4C043C4F20203084850
:101940005968026A3D2401F03D01DC600AB1406A39
:101950009047FEF75DFFBDE81040FEF779BD00BF80
:10196000840D0020AFF30080AFF30080AFF3008060
:1019700010B5FEF72DFF4FF4C043C4F2020309482F
:101980005968826A8C0904F03D014FF47464DC608C
:101990000AB1C06A9047FEF73BFFBDE81040FEF772
:1019A00057BD00BF840D0020AFF30080AFF300806F
:1019B00010B5FEF70DFF4FF4C043C4F2020309480F
:1019C0005968026B0C0C04F03D014FF47414DC6098
:1019D0000AB1406B9047FEF71BFFBDE81040FEF7D1
:1019E00037BD00BF840D0020AFF30080AFF300804F
:1019F00010B5FEF7EDFE4FF4C043C4F202030948F0
:101A00005968826B8C0D04F03D014FF07464DC600A
:101A10000AB1C06B9047FEF7FBFEBDE81040FEF731
:101A200017BD00BF840D0020AFF30080AFF300802E
:101A300010B5FEF7CDFE4FF4C843C4F202030848C8
:101A40001968026C3D2401F03D019C600AB1406CB4
:101A50009047FEF7DDFEBDE81040FEF7F9BC00BF81
:101A6000840D0020AFF30080AFF30080AFF300805F
:101A700010B5FEF7ADFE4FF4C843C4F202030948A7
:101A80001968826C8C0904F03D014FF474649C6009
:101A90000AB1C06C9047FEF7BBFEBDE81040FEF7F0
:101AA000D7BC00BF840D0020AFF30080AFF30080EF
:101AB00010B5FEF78DFE4FF4C843C4F20203094887
:101AC0001968026D0C0C04F03D014FF474149C6015
:101AD0000AB1406D9047FEF79BFEBDE81040FEF74F
:101AE000B7BC00BF840D0020AFF30080AFF30080CF
:101AF00010B5FEF76DFE4FF4C843C4F20203094867
:101B00001968826D8C0D04F03D014FF074649C6087
:101B10000AB1C06D9047FEF77BFEBDE81040FEF7AE
:101B200097BC00BF840D0020AFF30080AFF30080AE
:101B300010B5FEF74DFE4FF4C843C4F20203084847
:101B40005968026E3D2401F03D01DC600AB1406E2F
:101B50009047FEF75DFEBDE81040FEF779BC00BF80
:101B6000840D0020AFF30080AFF30080AFF300805E
:101B700010B5FEF72DFE4FF4C843C4F20203094826
:101B80005968826E8C0904F03D014FF47464DC6086
:101B90000AB1C06E9047FEF73BFEBDE81040FEF76D
:101BA00057BC00BF840D0020AFF30080AFF300806E
:101BB00010B5FEF70DFE4FF4C843C4F20203094806
:101BC0005968026F0C0C04F03D014FF47414DC6092
:101BD0000AB1406F9047FEF71BFEBDE81040FEF7CC
:101BE00037BC00BF840D0020AFF30080AFF300804E
:101BF00010B5FEF7EDFD4FF4C843C4F202030948E7
:101C00005968826F8C0D04F03D014FF07464DC6004
:101C10000AB1C06F9047FEF7FBFDBDE81040FEF72C
:101C200017BC00BF840D0020AFF30080AFF300802D
:101C30002DE9F00F40F604658AB0C2F2000546F2C5
:101C400040400295783046F21045C4F20205A0F5F6
:101C500080600495C4F2020046F240450390C4F24D
:101C6000020546F228400695C4F2020046F270458D
:101C70000590C4F2020546F258400195C4F20200F4
:101C800046F2B8450790C4F2020546F2884009952D
:101C9000C4F20200029D089046F2100B002040F6AC
:101CA000845346F2280A46F2400946F2580846F2A2
:101CB000700C46F2880746F2A006C2F200032860C4
:101CC000C4F2020B039DCBF80000C4F2020AC4F276
:101CD0000209C4F20208C4F2020CC4F20207C4F200
:101CE00002061860CAF800009860C9F80000186180
:101CF000C8F800009861CCF800001862386098625B
:101D0000306018632860049D98632860059D1864FE
:101D10002860069D98642860079D186546F2104467
:101D200028606034019D986530342860C4F2020454
:101D3000089D18664FF4C0414FF4C8422860C4F2B1
:101D400002019866C4F202022060099C18674FF0F5
:101D5000FF35206098678D60CD609560D5600AB0D2
:101D6000BDE8F00F704700BFAFF30080AFF3008015
:101D70004FF46053C4F202030022196941F00100DC
:101D800030B418611A615C6944F001055D615A6103
:101D9000996941F0010098619A611C6A1C621A629B
:101DA0005D6A4EF21001CEF2000149F23F04C0F22A
:101DB00002044EF6F05045F001055D62CEF20000DF
:101DC0005A624C6007248A600C60C4684FF48051EA
:101DD000CEF2000144F08074C460086840F0010055
:101DE0000860186C4FF4E041C4F2000140F08050EC
:101DF0001864086840F480700860196F01F440703E
:101E0000B0F5007F03D04FF4803119671A674FF4A3
:101E10006053C4F202031A6F120407D4186F40F41F
:101E2000007119671A6F42F40040186730BCFFF761
:101E3000FFBE00BFAFF30080AFF30080AFF30080C0
:101E40004FF46052C4F202024FF4E043C4F20003C4
:101E50004FF0805111644FF4804218461A60436875
:101E60005904FCD54FF46050C4F2020001460268E8
:101E700042F00103036008684FF460538207C4F224
:101E80000203F8D5196841F480321A6019460868CF
:101E90004FF460538003C4F20203F8D55A6F42F046
:101EA000010159671846426F4FF460539207C4F21C
:101EB0000203F8D545F20841C0F240715960186834
:101EC00040F080721A60194608684FF46053800130
:101ED000C4F20203F8D598684FF414424FF47051DD
:101EE000C3F60802C4F20201104340F20572986082
:101EF0000A60996841F002009860996801F00C004E
:101F00004FF460520828C4F20202F6D1536C43F435
:101F100080415164506E40F480435366704700BF67
:101F20004FF40C5310B5C4F2010340F60864C2F23A
:101F30000004012220465A60FFF7B2F84FF4005225
:101F4000C4F20102A26242F61643054AC0F202033D
:101F500012206021E2622363BDE81040FEF7E8BA78
:101F600050370008AFF30080AFF30080AFF300807C
:101F7000C16A0A68136810B423F00104146013687E
:101F800013F00103FBD10C7A826A49683D2000FA04
:101F900004F00860536093600123936010BC7047A5
:101FA00038B5FEF715FC4FF40053C4F201030021CD
:101FB0001A681960910629D5194CE06A03685A68B5
:101FC00022B3216911B32046FFF7D2FF2569EB68E0
:101FD0003BB1052020700121204698472278052A30
:101FE0001AD000252561202383F31188FEF7B8FB62
:101FF000606930B14FF0FF33094A83625561FEF7E3
:1020000007FDFEF7C5FB002383F31188FEF700FCF4
:10201000BDE83840FEF71CBA02212170E1E700BF9D
:10202000080E0020AFF30080AFF30080AFF3008014
:1020300038B5264CFEF7CCFBE3686268188A9D89A8
:10204000117DADB20540E84380B2188205F002036D
:1020500098B2C9B938B1207804230328237002D07C
:10206000D2682046904705F0040188B2002826D1A6
:10207000EB0703D56368154819698847FEF7C8FB65
:10208000BDE83840FEF7E4B970B905F0040398B232
:102090000028EDD021780D48042203292270E7D0D2
:1020A0004368D9688847E3E7052120462170926894
:1020B000904705F0040398B20028D9D0EAE7636896
:1020C00002489968052222708847D1E73C0E00201B
:1020D00010B540F63C64C2F200042046FEF7F8FF5B
:1020E0004FF48063C4F20003E36010BDAFF30080DF
:1020F00038B51E4DFEF76CFB2B691A8A9C89A4B279
:102100001440E14304F0020089B282B21982002A2D
:1021100027D104F0040082B2002A1DD104F0080087
:1021200082B2A2B904F0100082B25AB9E30703D513
:102130006A680E4893689847FEF76AFBBDE8384026
:10214000FEF786B96B680948996A8847EEE76B68BD
:102150000648196A8847E5E76B6804489969884723
:10216000DCE76B68284619698847D2E7540E0020DF
:1021700010B540F65464C2F200042046FEF7B8FFE2
:102180004FF40063C4F20003236110BDAFF300807D
:102190002DE9F04140F6686340F66C66C2F2000635
:1021A000C2F20003264F30464FF6FF7240F69C65A0
:1021B000C2F200051A80FEF7B3FF4FF44051162219
:1021C0004623C0F2016307F1240EC4F20101C0F2FC
:1021D0000162284640F6CC64C2F20004F362F16169
:1021E0003762C6F824E0B2624FF01608FEF798FF97
:1021F00046264FF46051C4F20001A7F13C02C0F240
:102200000108C0F201062046303FE9612A626F6290
:10221000C5F82880EE62FEF783FF43F2C060C0F687
:1022200000004FF47053C4F2000300F15401E36165
:1022300020626162C4F82880E662BDE8F08100BFD8
:1022400020370008AFF30080AFF30080AFF30080C9
:102250004FF46053C4F202031A6B6FEA52216FEA23
:1022600041221A63196D6FEA51226FEA4221196502
:1022700000230168C4F202034FF4806219604168D0
:10228000596081689960C168D96001695961416983
:10229000196281695962C169C4F202024FF4006394
:1022A0001160016A5160416A9160816AD160C16ABE
:1022B0005161016B1162416B5162C4F20203826B86
:1022C0001A60C16B5960026C9A60416CD960826C73
:1022D0005A61C16C1962016D4FF440625962416DDF
:1022E000C4F202024FF480531160816D5160C16DE0
:1022F0009160016ED160416E5161816E1162C16E5B
:102300005162C4F20203026F1A60416F5960826F1A
:102310009A60C16FD960D0F880205A61D0F88410DB
:102320001962D0F888104FF4A0525962D0F88C107E
:10233000C4F202024FF4C0531160D0F89010516003
:10234000D0F894109160D0F89810D160D0F89C101B
:102350005161D0F8A0101162D0F8A4105162D0F8E9
:10236000A810C4F202034FF4E0521960D0F8AC1088
:102370005960D0F8B0109960D0F8B410D960D0F896
:10238000B8105961D0F8BC101962D0F8C010C4F26E
:1023900002025962D0F8C4301360D0F8C8105160FE
:1023A000D0F8CC309360D0F8D010D160D0F8D430D1
:1023B0005361D0F8D8101162D0F8DC104FF40053FC
:1023C0005162D0F8E020C4F202031A60D0F8E410A1
:1023D0005960D0F8E8209A60D0F8EC10D960D0F8B5
:1023E000F0205A61D0F8F4101962D0F8F800586261
:1023F000704700BFAFF30080AFF30080AFF3008001
:10240000016CC36B00222DE9F00110468F684FF07C
:10241000804C4FF0FF3617E0585055015C1902F11F
:1024200058014901C4F81009C4F8086953F801803B
:10243000B8F1000F17DB58505D190132BA42C5F8E8
:10244000100BC5F8086B15D802F1480461015D58FE
:10245000002DE1DA550143F801C05C19D4F80819E0
:102460008907FBD5DAE743F801C0D4F8081BC90691
:10247000FBD5E1E74FF00110C3F81C08BDE8F001FF
:10248000704700BFAFF30080AFF30080AFF3008070
:10249000F8B5C46B04EB41134FF0FF32D3F8086B6F
:1024A000C3F8082B330705460F4603D5D4F8143874
:1024B0001A0715D4F30703D5D4F81408C00700D4BD
:1024C000F8BD3B1DE98955F82300012202FA07F205
:1024D00021EA0203EB81C268394628469047F8BDDD
:1024E0000A1D50F822305A689047E3E7AFF30080A6
:1024F000C26B890141F02003136110698106FCD48D
:102500000C20FEF7ADBD00BFAFF30080AFF300803D
:102510002DE9F04F40F63C51C2F20001D0F83CA04A
:102520008A698346954887B09061202383F3118898
:10253000FEF7DEF84FF000089BF80030012B06D0C4
:10254000DBF848409CB9DAF81450E8060FD440F69E
:102550003C57C2F20007DAF81860B96946F0100279
:10256000CAF818200220CBF85010FEF7A9FAFEF79F
:10257000D7F8002383F311881C46DAF8140010F012
:1025800010053AD0DBF83C00026A02F4F015B5F50C
:10259000802F49D0B5F5402FEFD102F00F07391D3C
:1025A000C2F30A165BF82130F51CAF081A6AE4D0B2
:1025B00000F580507E1E0368314642F8043B06F069
:1025C00001050123002ED8D02DB107680023711E0C
:1025D00042F8047BD1D0066813B142F8046B013B8A
:1025E0000139056813B142F8045B013B0139F2D1AE
:1025F000DAF8140010F01005C4D10126DBF84830D9
:10260000A6401E42049640F0BB8001340594DBF8DE
:102610004010059C8B68E4B29C42AED9202383F322
:102620001188FEF765F887E702F00F070437C2F359
:102630000A165BF8272095692B68002B3AD1696848
:10264000AB68EA680331CB1AF11C9B08890828D0D3
:1026500000F5805001F1FF3909F0010ED0F800C0FB
:1026600013B142F804CB013B013919D0BEF1000F80
:1026700007D0D0F8009013B142F8049B013B013918
:102680000ED0A646046813B142F8044B013B013951
:10269000046813B142F8044B013B0139F2D174468E
:1026A000EA689019E8605BF82770B8698568AE1928
:1026B000866062E700F58050ED68002E40D033461A
:1026C000A446032B696907D92C69A14204D3EC689D
:1026D000032B6C616969F7D8026801F8012B2C693A
:1026E0006961A14224BFE9686961012B27D0D5F84F
:1026F0001490110A09F8011B2C69C5F81490A14522
:1027000024BFEC686C61022B19D0D5F814E0110CD1
:102710000EF8011B2C69C5F814E0A64524BFEC682F
:102720006C61032B0BD06969120E01F8012B2C6927
:102730006961A14224BFEC686C61043BC1D164466D
:10274000202383F31188FDF7D3FFA96828688A192D
:10275000A842AA6009D003682B605D60FEF758F9B3
:10276000C0F828802868A842F5D1FEF781FAFDF765
:10277000D7FF002383F3118895E700BF9037000847
:10278000202383F31188FDF7B3FFDAF80870DBF834
:102790004810049827F0010221EA0001CAF8082035
:1027A000CBF84810FDF7BCFF2B4683F31188251D9D
:1027B00002955BF825607269936857689F4240F202
:1027C0000081DBF83C10358A60010E18FF1AD6F83C
:1027D00018390390BD4228BF3D4698B20134B5EB8D
:1027E000800F059444D8260301960C4611680029F1
:1027F00058D1EB1C019FD1689E0804EB07001BD049
:10280000771E51F804EB019E3B4644F806E007F0C2
:10281000010704317BB12FB151F8044C0431013B65
:10282000046008D051F8047C076051F8046B04314F
:10283000023B0660F6D1D1684819D06002985BF877
:1028400020607269946851682B199942936040F234
:10285000BA80039DDBF83C40308A6719CD1AD7F85F
:102860001869854228BF0546B1B2B5EB810FBDD9C5
:102870000024202383F31188FDF73AFFDAF80830AB
:1028800043F00100CAF8080034B9DAF83458049F5C
:1028900047EA0506CAF83468FDF742FF002383F3D0
:1028A0001188B4E6019BE118D468002D35D0206969
:1028B0002A46AE4697084FD0A569461B48BF033647
:1028C000B3109F4238BF3B464FEA830CCCEB020269
:1028D000DBB12E465F1E56F8049B3B46C1F80090C4
:1028E00007F0010704367BB12FB156F8047C04369B
:1028F000013B0F6008D056F8047C0F6056F8047B4B
:102900000436023B0F60F6D16544A842A56121D888
:10291000E668A661002ACDD17546202383F311888D
:10292000FDF7E6FEA16820684F19A042A76009D014
:10293000036823605C60FEF76BF8C0F828802068AD
:10294000A042F5D1FEF794F9FDF7EAFE002383F3E8
:10295000118873E7002ADFD0A66916F8013B86428A
:10296000A66124BFE668A661012A28D0A76917F8E6
:10297000015BB842A7619CBFE768A761022A43EAEE
:1029800005231CD0A76917F8016BB842A7619CBF4B
:10299000E768A761032A43EA064310D0A56915F842
:1029A000017B8542A56124BFE568A561043A43EA3D
:1029B000076304D00B60002A7FF47CAFACE70022F1
:1029C000F8E7621C0592012453E700BFAFF30080D3
:1029D000F8B5C46B04EB41134FF0FF32D3F808692C
:1029E000C3F80829F30705460F4603D5D4F8103875
:1029F000DA0723D4330606D50121D4F8340801FAC6
:102A000007F7074200D1F8BD202383F31188FDF7B3
:102A1000A7FEAB6CD4F83428286D3B4322EA0707A5
:102A2000AB64C4F8347818B1FDF7F2FF00202865D4
:102A3000FDF7AEFE002383F31188F8BD0A1DB0F840
:102A40000CE050F82230012202FA01F22EEA0202D2
:102A500082819B689847CDE7AFF30080AFF3008099
:102A600070B5424EFDF7B4FEF56B6B69AC691C4066
:102A7000E1046C612DD4A20448BFD5F808382307BF
:102A800004D57068C16809B138488847E0062BD47E
:102A90006103D5F8185807D5EA074FD4AB0753D4CC
:102AA000680757D429075BD4220307D5EB0338D432
:102AB000A8033CD469032DD42A0305D4FDF7A8FE4E
:102AC000BDE87040FDF7C4BC28480321FFF7E0FCD7
:102AD000F4E73046FEF754FC73681B68002BCAD03D
:102AE000304600219847C6E7202383F31188FDF77D
:102AF00037FEAA69306D22F01003AB6120B1FDF7FB
:102B000087FF1A4900200865FDF742FE002383F382
:102B10001188BDE702211548FFF7BAFC2A03CDD57D
:102B2000D2E712480021FFF7B3FCA803C2D5012168
:102B30000E48FFF7ADFC6903BED5EBE700210B485B
:102B4000FFF746FFAB07ABD508480121FFF740FF71
:102B50006807A7D502210548FFF73AFF2907A3D543
:102B600002480321FFF734FF9EE700BF000F00205B
:102B700038B540F60074C2F200042046FEF730FB80
:102B80000023E36423654FF0A04304F1A405E3634D
:102B900043F280732946FF2204F15800C0F6000377
:102BA0002364FEF7BDF8284604F59E715522BDE862
:102BB0003840FEF7B5B800BFAFF30080AFF3008038
:102BC00070B50378C56B012B82B0064601D002B008
:102BD00070BD3048864249D0F16C0024B4640029AD
:102BE00038D04FF4A250F46BC4F200000323E86025
:102BF000C0F2202300224FF450210120C5F80038F4
:102C0000C5F8002EA96320612369D807FCD40C20E5
:102C1000FEF726FA2269002AFCDA00243046AC606E
:102C2000FFF7EEFB7168C5F81048C868C5F814488E
:102C3000C5F81C4850B143F20803AB614FF0FF31B7
:102C40006961A86840F00103AB60C0E74FF44052EF
:102C5000AA61F3E7009606F158004FF4987102223A
:102C60000D4BFEF77DF83065F064BAE74FF4605124
:102C7000C4F202014A6B42F080044C634B690022AB
:102C800043F0800048614A614320E021FDF750FC99
:102C9000A2E700BF000F002011250008AFF300805D
:102CA0002DE9F84F80460021C46BFFF721FCD8F8CE
:102CB00040B0DBF808A04FF00061FF22C4F8001913
:102CC0000AF00106C4F8001B0123C4F80829C4F85F
:102CD000082BBAF1000F30D056B102235345C4F887
:102CE0002019C4F8201BC4F82829C4F8282B24D89C
:102CF0005F1C03F1490C03F1480903F1580003F18B
:102D0000590E04EB431604EB471540014FEA4C17EC
:102D10004FEA49194FEA4E1C0233534544F8091053
:102D20002150C6F80829C6F8082BE15144F80C10C8
:102D3000C5F80829C5F8082BDAD9DBF80030D8F82F
:102D40003C204FF0FF314FF001161025C4F8181841
:102D5000C4F81C68C8F8443063621561106910F04B
:102D60001005FBD10C20FEF77BF9D4F80078D8F8D9
:102D70004030D8F84460586827F4FE62C4F8002850
:102D8000A16941F4402747F010070921A76106F126
:102D90001002C4F8101848F24003C4F814180C4983
:102DA000C1F200038242C8F81010C4F8105BC4F8E6
:102DB000003BC4F81059C4F80039C8F8442002D9BF
:102DC0000448FDF7A5FD46F48016A662BDE8F88F1D
:102DD000C0370008A0370008AFF30080AFF30080D1
:102DE000C36B90F83A10D3F8002822F4FE6040EA52
:102DF0000111C3F800187047AFF30080AFF30080F3
:102E00002DE9F84F0F1D064650F82730C46B1A689D
:102E100002F0030002280D464FF4004865D0032855
:102E200060D04146C1F20001C1F20408012818BF78
:102E300088466A01A0180021C0F8101BD868002835
:102E400056D0588A05F15801490148EA00006050FF
:102E50004FF0010CD4F81C0805F110010CFA01F137
:102E60000143C4F81C18A21899680020C2F8100980
:102E7000002950D09A8B198A336CD6F84490880870
:102E8000012A88BF5043596800EB09028A427264E4
:102E900005F1FF3B4FEA004A20D80BF1400004EB5C
:102EA000800B4AEA09032946CBF804303046FFF785
:102EB0001FFB56F827100A8A05F1480042EA85519F
:102EC000430141EA0802E2500121D4F81C0801FA4A
:102ED00005F50543C4F81C58BDE8F88F1D48FDF7FB
:102EE00017FDDAE7C1F20C08A3E7C1F20808A0E772
:102EF00005F15801490105F1100E605820F4004019
:102F000060500121D4F81C0801FA0EF120EA0100FA
:102F1000C4F81C08A7E705F13F0304EB83024FF454
:102F20008061C0F20021516030462946FFF7E0FA87
:102F300005F148004301E25822F40041E150012329
:102F4000D4F81C0803FA05F520EA0505C4F81C5856
:102F5000BDE8F88FA0370008AFF30080AFF3008022
:102F60005831C36B49015A5812F4004004D012F48E
:102F7000001F0CBF02200120704700BFAFF300808C
:102F80004831C36B49015A5812F4004004D012F47E
:102F9000001F0CBF02200120704700BFAFF300806C
:102FA000043150F82130186A016843681160536099
:102FB000704700BFAFF30080AFF30080AFF3008035
:102FC0000B1D10B4C46B50F823008269438A50680B
:102FD000421ED01804EB411143F0C042B0FBF3F3A2
:102FE00042EAC340C1F8100B10BC7047AFF3008039
:102FF0000B1D10B450F8232053695B686BB1128A23
:10300000C06B5C1EA418B4FBF2F200EB411143EA62
:10301000C243C1F8103910BC7047C06B00EB4112BD
:103020004FF40021C2F81019F5E700BFAFF300809C
:103030005831C36B49015A5842F08060585070476C
:1030400001F14802C36B5201985840F00440985077
:103050000120D3F8342800FA01F11143C3F83418E1
:10306000704700BFAFF30080AFF30080AFF3008084
:103070005831C36B49015A5842F4001058507047F8
:103080004831C36B49015A5842F4001058507047F8
:103090005831C36B49015A5822F4001058507047F8
:1030A0004831C36B49015A5822F4001058507047F8
:1030B000FEF7C6BEAFF30080AFF30080AFF3008031
:1030C000704700BFAFF30080AFF30080AFF3008024
:1030D000022906D0032906D00748012918BF00207D
:1030E000704706487047032A03D8054800EBC20022
:1030F00070470448704700BF903A00082039000824
:10310000603A0008803A0008AFF30080AFF3008017
:1031100038B50C46054611B90E48017038BD022974
:1031200000D038BD202383F31188FDF719FB284612
:103130000121094AFEF78CF828462146074AFEF786
:1031400087F8FDF725FB002383F31188044B012248
:103150001A7038BDD0100020F0380008303900084F
:10316000D1100020AFF30080AFF30080AFF30080F8
:1031700010B540F60004C2F200044FF47A702368E0
:10318000D96B8A6B22F400238B63FDF791FE43F623
:1031900050212068C0F60001FEF72AF82068C16BB4
:1031A0008A6B42F400238B6310BD00BFAFF3008035
:1031B00070B50F4C0F492378012502460D709BB165
:1031C0000D4E042329463068FEF78AF8202383F346
:1031D0001188FDF78DFA29463068FEF7B1F8FDF742
:1031E0009FFA002383F311880020207070BD00BF78
:1031F000D1100020D010002000080020AFF3008084
:10320000F0B48407034600F08E80541E002A00F0BC
:103210008880E507CEB211D41A46671E02F8016B0A
:103220001346154692070FD0002C7AD003F8016B95
:103230009A073C461D4607D0013CEDE7034603F8DC
:10324000016B9A071D46F7D1032C52D9CEB246EA3C
:1032500006270F2C47EA07432DD9A4F11002174681
:103260000F2FC2F300162B606B60AB60EB6005F1B3
:10327000100216D93EB1103F136053609360D360C3
:1032800010320F2F0DD9203F02F11006136053604A
:103290009360D360136153619361D36120320F2F28
:1032A000F1D8A4F1100222F00F0204F00F04103242
:1032B000032C15441DD9271F3E462A46032E42F8EB
:1032C000043BC7F380070DD927B1043E032E42F813
:1032D000043B07D91746083E47F8043B53603A1DA4
:1032E000032EF7D8231F23F00302131D04F0030459
:1032F000ED18B4B12B46C9B203F8011B2C19ED43EC
:103300006219A34202F001050BD01DB103F8011BA5
:10331000A34206D01A4602F8011B5970531CA3425F
:10332000F8D1F0BC7047054614468DE70000000058
:1033300069646C65000000006D61696E000000004A
:103340005356233100000000535623320000000082
:10335000535623330000000053562334000000006E
:10336000535623350000000053562336000000005A
:103370005356233700000000535623380000000046
:10338000535623390000000053562331300000000B
:1033900053562331310000000000000000000000FF
:1033A000226368565453657449222829000000009E
:1033B00022636856545265736574492228290000B7
:1033C0006368565452657365744928292C2023314B
:1033D00000000000000000000000000000000000ED
:1033E000636853636852656164794928292C2023F6
:1033F00031000000737461636B206F766572666CD8
:103400006F770000000000000000000000000000D6
:10341000226368546864437265617465492228298F
:103420000000000022636854686453657450726938
:103430006F7269747922282900000000636854685B
:1034400064526573756D6528292C202331000000B6
:10345000226368546864536C6565702228290000F3
:103460006368546864457869745328292C20233193
:103470000000000022636854686457616974222860
:103480002900000063685468645761697428292C16
:103490002023310063685468645761697428292CBB
:1034A00020233200000000000000000000000000A7
:1034B0002263684D7478496E6974222829000000DF
:1034C0002263684D74784C6F636B53222829000087
:1034D00063684D74784C6F636B5328292C2023311B
:1034E0000000000063684D74784C6F636B532829AB
:1034F0002C202332000000002263684D747854723F
:10350000794C6F636B5322282900000063684D7467
:1035100078556E6C6F636B28292C202331000000D6
:1035200063684D7478556E6C6F636B28292C20236B
:103530003200000063684D7478556E6C6F636B5396
:1035400028292C202331000063684D7478556E6C57
:103550006F636B5328292C202332000000000000E9
:10356000000000000000000000000000000000005B
:10357000000000000000000000000000000000004B
:10358000227573625374617274222829000000004E
:10359000757362537461727428292C2023310000E2
:1035A0002275736253746F702228290075736253F9
:1035B000746F7028292C202331000000227573625B
:1035C000496E6974456E64706F696E74492228296A
:1035D00000000000757362456E61626C65456E6443
:1035E000706F696E744928292C2023310000000077
:1035F000757362456E61626C65456E64706F696E6D
:10360000744928292C20233200000000227573629F
:1036100044697361626C65456E64706F696E747342
:1036200049222829000000007573624469736162B1
:103630006C65456E64706F696E74734928292C201F
:103640002331000022757362537461727452656392
:103650006569766549222829000000002275736299
:1036600053746172745472616E736D697449222867
:1036700029000000227573625374616C6C5265639B
:103680006569766549222829000000002275736269
:103690005374616C6C5472616E736D697449222845
:1036A00029000000000000000000000000000000F1
:1036B0000100000000000000000000000000000009
:1036C000106002400860024000000B0028600240C9
:1036D0000860024006010C004060024008600240A1
:1036E00010020D00586002400860024016030E00F0
:1036F000706002400C60024000040F0088600240CD
:103700000C60024006051000A06002400C60024000
:1037100010061100B86002400C60024016072F002E
:103720001064024008640240000838002864024027
:1037300008640240060939004064024008640240FF
:10374000100A3A005864024008640240160B3B001D
:10375000706402400C640240000C3C00886402402B
:103760000C640240060D4400A06402400C64024058
:10377000100E4500B86402400C640240160F46006B
:103780008000000080010000030000000000000035
:103790007573625F6C6C645F70756D700000000023
:1037A0006F74675F6669666F5F616C6C6F63282911
:1037B0002C20233100000000000000000000000069
:1037C00000000000B1130008F1160008B11700084E
:1037D00040004000881000208810002001000000F8
:1037E0009810002000000000000000000000000011
:1037F00000AAA02A00000000FFABFFFF5400014018
:10380000FFFF00000000565500AA0A0080200800B3
:1038100040020000FFFFFFFF15455155FFFF00006C
:1038200000000004400000000180200200000000B1
:10383000FFFFFFFF54154554FFFF0000000000602C
:10384000000606000001005500000000FFFFFFFF1A
:1038500055501500FF0F00000000000000000000A0
:103860004000000000000000FFFFFFFF000000001C
:10387000FFFF00000000000000000000000000004A
:1038800000000000FFFFFFFF00000000FFFF00003E
:103890000000000000000000000000000000000028
:1038A000FFFFFFFF00000000FFFF0000000000001E
:1038B000000000000000000000000000FFFFFFFF0C
:1038C00000000000FFFF00000000000000000000FA
:1038D0000000000000000000FFFFFFFF00000000EC
:1038E000FFFF0000000000000000000000000000DA
:1038F00002000000000000000000000000000000C6
:1039000020000000C01000200000000001000000A6
:1039100000000000000000000000000000000000A7
:1039200020000000303A0008000000000000000005
:103930000200000000000000000000000000000085
:103940000000100000000000D41000200100000062
:103950000000000000000000000000000000000067
:103960000C0332002E0035002E0030000000000055
:103970002603530054004D006900630072006F007D
:1039800065006C0065006300740072006F006E00DB
:1039900069006300730000000000000000000000E8
:1039A000220353007400720069006E00670020005B
:1039B0006E006F007400200066006F0075006E00DE
:1039C0006400000000000000000000000000000093
:1039D0003003430068006900620069004F00530033
:1039E0002F0043007500730074006F006D0020000D
:1039F0004800610072006400770061007200650099
:103A000012011001FF0000408304FFFF00020102C9
:103A100003010000000000000000000000000000A2
:103A20000403090400000000000000000000000082
:103A300009022000010100C0320904000002FF0059
:103A400000000705810220000007050202100000A7
:103A500011310008D1300008000000000000000013
:103A600004000000203A0008260000007039000819
:103A700030000000D03900080C0000006039000858
:103A800022000000A0390008000000000000000033
:083A900012000000003A0008DA
:043A9800000F0020FB
:04000005080001905E
:00000001FF
